{
  "contractName": "CryptoSuits",
  "abi": [
    {
      "inputs": [],
      "stateMutability": "nonpayable",
      "type": "constructor"
    },
    {
      "anonymous": false,
      "inputs": [
        {
          "indexed": true,
          "internalType": "address",
          "name": "owner",
          "type": "address"
        },
        {
          "indexed": true,
          "internalType": "address",
          "name": "approved",
          "type": "address"
        },
        {
          "indexed": true,
          "internalType": "uint256",
          "name": "tokenId",
          "type": "uint256"
        }
      ],
      "name": "Approval",
      "type": "event"
    },
    {
      "anonymous": false,
      "inputs": [
        {
          "indexed": true,
          "internalType": "address",
          "name": "owner",
          "type": "address"
        },
        {
          "indexed": true,
          "internalType": "address",
          "name": "operator",
          "type": "address"
        },
        {
          "indexed": false,
          "internalType": "bool",
          "name": "approved",
          "type": "bool"
        }
      ],
      "name": "ApprovalForAll",
      "type": "event"
    },
    {
      "anonymous": false,
      "inputs": [
        {
          "indexed": false,
          "internalType": "address",
          "name": "minter",
          "type": "address"
        },
        {
          "indexed": false,
          "internalType": "address",
          "name": "receiver",
          "type": "address"
        },
        {
          "indexed": false,
          "internalType": "uint256",
          "name": "tokenId",
          "type": "uint256"
        }
      ],
      "name": "Minted",
      "type": "event"
    },
    {
      "anonymous": false,
      "inputs": [
        {
          "indexed": true,
          "internalType": "address",
          "name": "previousOwner",
          "type": "address"
        },
        {
          "indexed": true,
          "internalType": "address",
          "name": "newOwner",
          "type": "address"
        }
      ],
      "name": "OwnershipTransferred",
      "type": "event"
    },
    {
      "anonymous": false,
      "inputs": [
        {
          "indexed": false,
          "internalType": "bool",
          "name": "saleState",
          "type": "bool"
        }
      ],
      "name": "SaleChanged",
      "type": "event"
    },
    {
      "anonymous": false,
      "inputs": [
        {
          "indexed": true,
          "internalType": "address",
          "name": "from",
          "type": "address"
        },
        {
          "indexed": true,
          "internalType": "address",
          "name": "to",
          "type": "address"
        },
        {
          "indexed": true,
          "internalType": "uint256",
          "name": "tokenId",
          "type": "uint256"
        }
      ],
      "name": "Transfer",
      "type": "event"
    },
    {
      "inputs": [
        {
          "internalType": "address",
          "name": "to",
          "type": "address"
        },
        {
          "internalType": "uint256",
          "name": "tokenId",
          "type": "uint256"
        }
      ],
      "name": "approve",
      "outputs": [],
      "stateMutability": "nonpayable",
      "type": "function"
    },
    {
      "inputs": [
        {
          "internalType": "address",
          "name": "owner",
          "type": "address"
        }
      ],
      "name": "balanceOf",
      "outputs": [
        {
          "internalType": "uint256",
          "name": "",
          "type": "uint256"
        }
      ],
      "stateMutability": "view",
      "type": "function",
      "constant": true
    },
    {
      "inputs": [],
      "name": "baseUri",
      "outputs": [
        {
          "internalType": "string",
          "name": "",
          "type": "string"
        }
      ],
      "stateMutability": "view",
      "type": "function",
      "constant": true
    },
    {
      "inputs": [
        {
          "internalType": "uint256",
          "name": "tokenId",
          "type": "uint256"
        }
      ],
      "name": "burn",
      "outputs": [],
      "stateMutability": "nonpayable",
      "type": "function"
    },
    {
      "inputs": [
        {
          "internalType": "uint256",
          "name": "tokenId",
          "type": "uint256"
        }
      ],
      "name": "getApproved",
      "outputs": [
        {
          "internalType": "address",
          "name": "",
          "type": "address"
        }
      ],
      "stateMutability": "view",
      "type": "function",
      "constant": true
    },
    {
      "inputs": [],
      "name": "imageTx",
      "outputs": [
        {
          "internalType": "string",
          "name": "",
          "type": "string"
        }
      ],
      "stateMutability": "view",
      "type": "function",
      "constant": true
    },
    {
      "inputs": [
        {
          "internalType": "address",
          "name": "owner",
          "type": "address"
        },
        {
          "internalType": "address",
          "name": "operator",
          "type": "address"
        }
      ],
      "name": "isApprovedForAll",
      "outputs": [
        {
          "internalType": "bool",
          "name": "",
          "type": "bool"
        }
      ],
      "stateMutability": "view",
      "type": "function",
      "constant": true
    },
    {
      "inputs": [],
      "name": "maxPurchase",
      "outputs": [
        {
          "internalType": "uint256",
          "name": "",
          "type": "uint256"
        }
      ],
      "stateMutability": "view",
      "type": "function",
      "constant": true
    },
    {
      "inputs": [],
      "name": "maxSupply",
      "outputs": [
        {
          "internalType": "uint256",
          "name": "",
          "type": "uint256"
        }
      ],
      "stateMutability": "view",
      "type": "function",
      "constant": true
    },
    {
      "inputs": [],
      "name": "metadataTx",
      "outputs": [
        {
          "internalType": "string",
          "name": "",
          "type": "string"
        }
      ],
      "stateMutability": "view",
      "type": "function",
      "constant": true
    },
    {
      "inputs": [],
      "name": "name",
      "outputs": [
        {
          "internalType": "string",
          "name": "",
          "type": "string"
        }
      ],
      "stateMutability": "view",
      "type": "function",
      "constant": true
    },
    {
      "inputs": [],
      "name": "owner",
      "outputs": [
        {
          "internalType": "address",
          "name": "",
          "type": "address"
        }
      ],
      "stateMutability": "view",
      "type": "function",
      "constant": true
    },
    {
      "inputs": [
        {
          "internalType": "uint256",
          "name": "tokenId",
          "type": "uint256"
        }
      ],
      "name": "ownerOf",
      "outputs": [
        {
          "internalType": "address",
          "name": "",
          "type": "address"
        }
      ],
      "stateMutability": "view",
      "type": "function",
      "constant": true
    },
    {
      "inputs": [],
      "name": "price",
      "outputs": [
        {
          "internalType": "uint256",
          "name": "",
          "type": "uint256"
        }
      ],
      "stateMutability": "view",
      "type": "function",
      "constant": true
    },
    {
      "inputs": [],
      "name": "renounceOwnership",
      "outputs": [],
      "stateMutability": "nonpayable",
      "type": "function"
    },
    {
      "inputs": [
        {
          "internalType": "address",
          "name": "from",
          "type": "address"
        },
        {
          "internalType": "address",
          "name": "to",
          "type": "address"
        },
        {
          "internalType": "uint256",
          "name": "tokenId",
          "type": "uint256"
        }
      ],
      "name": "safeTransferFrom",
      "outputs": [],
      "stateMutability": "nonpayable",
      "type": "function"
    },
    {
      "inputs": [
        {
          "internalType": "address",
          "name": "from",
          "type": "address"
        },
        {
          "internalType": "address",
          "name": "to",
          "type": "address"
        },
        {
          "internalType": "uint256",
          "name": "tokenId",
          "type": "uint256"
        },
        {
          "internalType": "bytes",
          "name": "_data",
          "type": "bytes"
        }
      ],
      "name": "safeTransferFrom",
      "outputs": [],
      "stateMutability": "nonpayable",
      "type": "function"
    },
    {
      "inputs": [
        {
          "internalType": "address",
          "name": "operator",
          "type": "address"
        },
        {
          "internalType": "bool",
          "name": "approved",
          "type": "bool"
        }
      ],
      "name": "setApprovalForAll",
      "outputs": [],
      "stateMutability": "nonpayable",
      "type": "function"
    },
    {
      "inputs": [],
      "name": "startSale",
      "outputs": [
        {
          "internalType": "bool",
          "name": "",
          "type": "bool"
        }
      ],
      "stateMutability": "view",
      "type": "function",
      "constant": true
    },
    {
      "inputs": [
        {
          "internalType": "bytes4",
          "name": "interfaceId",
          "type": "bytes4"
        }
      ],
      "name": "supportsInterface",
      "outputs": [
        {
          "internalType": "bool",
          "name": "",
          "type": "bool"
        }
      ],
      "stateMutability": "view",
      "type": "function",
      "constant": true
    },
    {
      "inputs": [],
      "name": "symbol",
      "outputs": [
        {
          "internalType": "string",
          "name": "",
          "type": "string"
        }
      ],
      "stateMutability": "view",
      "type": "function",
      "constant": true
    },
    {
      "inputs": [
        {
          "internalType": "uint256",
          "name": "tokenId",
          "type": "uint256"
        }
      ],
      "name": "tokenURI",
      "outputs": [
        {
          "internalType": "string",
          "name": "",
          "type": "string"
        }
      ],
      "stateMutability": "view",
      "type": "function",
      "constant": true
    },
    {
      "inputs": [
        {
          "internalType": "address",
          "name": "from",
          "type": "address"
        },
        {
          "internalType": "address",
          "name": "to",
          "type": "address"
        },
        {
          "internalType": "uint256",
          "name": "tokenId",
          "type": "uint256"
        }
      ],
      "name": "transferFrom",
      "outputs": [],
      "stateMutability": "nonpayable",
      "type": "function"
    },
    {
      "inputs": [
        {
          "internalType": "address",
          "name": "newOwner",
          "type": "address"
        }
      ],
      "name": "transferOwnership",
      "outputs": [],
      "stateMutability": "nonpayable",
      "type": "function"
    },
    {
      "stateMutability": "payable",
      "type": "receive",
      "payable": true
    },
    {
      "inputs": [],
      "name": "getCurrentId",
      "outputs": [
        {
          "internalType": "uint256",
          "name": "",
          "type": "uint256"
        }
      ],
      "stateMutability": "view",
      "type": "function",
      "constant": true
    },
    {
      "inputs": [
        {
          "internalType": "uint256",
          "name": "tokenId",
          "type": "uint256"
        }
      ],
      "name": "exists",
      "outputs": [
        {
          "internalType": "bool",
          "name": "",
          "type": "bool"
        }
      ],
      "stateMutability": "view",
      "type": "function",
      "constant": true
    },
    {
      "inputs": [],
      "name": "saleStarted",
      "outputs": [
        {
          "internalType": "bool",
          "name": "",
          "type": "bool"
        }
      ],
      "stateMutability": "view",
      "type": "function",
      "constant": true
    },
    {
      "inputs": [
        {
          "internalType": "uint256",
          "name": "numberOfTokens",
          "type": "uint256"
        },
        {
          "internalType": "address",
          "name": "owner",
          "type": "address"
        }
      ],
      "name": "mint",
      "outputs": [],
      "stateMutability": "payable",
      "type": "function",
      "payable": true
    },
    {
      "inputs": [
        {
          "internalType": "uint256",
          "name": "numberOfTokens",
          "type": "uint256"
        }
      ],
      "name": "mint",
      "outputs": [],
      "stateMutability": "payable",
      "type": "function",
      "payable": true
    },
    {
      "inputs": [
        {
          "internalType": "address",
          "name": "_owner",
          "type": "address"
        }
      ],
      "name": "getByOwner",
      "outputs": [
        {
          "internalType": "uint256[]",
          "name": "",
          "type": "uint256[]"
        }
      ],
      "stateMutability": "view",
      "type": "function",
      "constant": true
    },
    {
      "inputs": [
        {
          "internalType": "string",
          "name": "_baseUri",
          "type": "string"
        }
      ],
      "name": "setBaseUri",
      "outputs": [],
      "stateMutability": "nonpayable",
      "type": "function"
    },
    {
      "inputs": [
        {
          "internalType": "bool",
          "name": "_startSale",
          "type": "bool"
        }
      ],
      "name": "setSaleStart",
      "outputs": [],
      "stateMutability": "nonpayable",
      "type": "function"
    },
    {
      "inputs": [
        {
          "internalType": "string",
          "name": "_imageTx",
          "type": "string"
        },
        {
          "internalType": "string",
          "name": "_metadataTx",
          "type": "string"
        }
      ],
      "name": "setProvenance",
      "outputs": [],
      "stateMutability": "nonpayable",
      "type": "function"
    },
    {
      "inputs": [],
      "name": "withdraw",
      "outputs": [],
      "stateMutability": "payable",
      "type": "function",
      "payable": true
    },
    {
      "inputs": [
        {
          "internalType": "contract IERC20",
          "name": "_token",
          "type": "address"
        },
        {
          "internalType": "uint256",
          "name": "_amount",
          "type": "uint256"
        }
      ],
      "name": "forwardERC20s",
      "outputs": [],
      "stateMutability": "nonpayable",
      "type": "function"
    },
    {
      "inputs": [
        {
          "internalType": "bytes",
          "name": "s",
          "type": "bytes"
        }
      ],
      "name": "uploadImages",
      "outputs": [],
      "stateMutability": "nonpayable",
      "type": "function"
    },
    {
      "inputs": [
        {
          "internalType": "bytes",
          "name": "s",
          "type": "bytes"
        }
      ],
      "name": "uploadAttributes",
      "outputs": [],
      "stateMutability": "nonpayable",
      "type": "function"
    }
  ],
  "bytecode": "0x608060405260405180602001604052806000815250600890805190602001906200002b929190620001f6565b50604051806020016040528060008152506009908051906020019062000053929190620001f6565b503480156200006157600080fd5b506040518060400160405280600a81526020017f43727970746f53756974000000000000000000000000000000000000000000008152506040518060400160405280600a81526020017f43525950544f53554954000000000000000000000000000000000000000000008152508160009080519060200190620000e6929190620001f6565b508060019080519060200190620000ff929190620001f6565b50505062000122620001166200012860201b60201c565b6200013060201b60201c565b6200030b565b600033905090565b6000600660009054906101000a900473ffffffffffffffffffffffffffffffffffffffff16905081600660006101000a81548173ffffffffffffffffffffffffffffffffffffffff021916908373ffffffffffffffffffffffffffffffffffffffff1602179055508173ffffffffffffffffffffffffffffffffffffffff168173ffffffffffffffffffffffffffffffffffffffff167f8be0079c531659141344cd1fd0a4f28419497f9722a3daafe3b4186f6b6457e060405160405180910390a35050565b8280546200020490620002a6565b90600052602060002090601f01602090048101928262000228576000855562000274565b82601f106200024357805160ff191683800117855562000274565b8280016001018555821562000274579182015b828111156200027357825182559160200191906001019062000256565b5b50905062000283919062000287565b5090565b5b80821115620002a257600081600090555060010162000288565b5090565b60006002820490506001821680620002bf57607f821691505b60208210811415620002d657620002d5620002dc565b5b50919050565b7f4e487b7100000000000000000000000000000000000000000000000000000000600052602260045260246000fd5b614520806200031b6000396000f3fe60806040526004361061021e5760003560e01c80638da5cb5b11610123578063a22cb465116100ab578063c87b56dd1161006f578063c87b56dd1461078b578063d5abeb01146107c8578063e985e9c5146107f3578063f2fde38b14610830578063f7c190291461085957610225565b8063a22cb465146106ba578063a71ffed9146106e3578063b61fca161461070e578063b66a0e5d14610737578063b88d4fde1461076257610225565b8063977b055b116100f2578063977b055b146105f45780639abc83201461061f578063a035b1fe1461064a578063a0712d6814610675578063a0bcfc7f1461069157610225565b80638da5cb5b1461055957806394bf804d1461058457806395d89b41146105a05780639727151a146105cb57610225565b806342842e0e116101a65780636352211e116101755780636352211e146104745780636c143862146104b15780636c911918146104dc57806370a0823114610505578063715018a61461054257610225565b806342842e0e146103ba57806342966c68146103e35780634f558e791461040c5780635c474f9e1461044957610225565b806312e2cfca116101ed57806312e2cfca146102f857806323b872dd14610321578063379c51311461034a57806338c410b5146103875780633ccfd60b146103b057610225565b806301ffc9a71461022a57806306fdde0314610267578063081812fc14610292578063095ea7b3146102cf57610225565b3661022557005b600080fd5b34801561023657600080fd5b50610251600480360381019061024c9190613084565b610884565b60405161025e91906137aa565b60405180910390f35b34801561027357600080fd5b5061027c610966565b60405161028991906137c5565b60405180910390f35b34801561029e57600080fd5b506102b960048036038101906102b49190613204565b6109f8565b6040516102c691906136c1565b60405180910390f35b3480156102db57600080fd5b506102f660048036038101906102f19190612ff6565b610a7d565b005b34801561030457600080fd5b5061031f600480360381019061031a91906130d6565b610b95565b005b34801561032d57600080fd5b5061034860048036038101906103439190612ef0565b610c15565b005b34801561035657600080fd5b50610371600480360381019061036c9190612e8b565b610c75565b60405161037e9190613788565b60405180910390f35b34801561039357600080fd5b506103ae60048036038101906103a99190613198565b610e58565b005b6103b8610f06565b005b3480156103c657600080fd5b506103e160048036038101906103dc9190612ef0565b61108b565b005b3480156103ef57600080fd5b5061040a60048036038101906104059190613204565b6110ab565b005b34801561041857600080fd5b50610433600480360381019061042e9190613204565b611107565b60405161044091906137aa565b60405180910390f35b34801561045557600080fd5b5061045e611119565b60405161046b91906137aa565b60405180910390f35b34801561048057600080fd5b5061049b60048036038101906104969190613204565b611130565b6040516104a891906136c1565b60405180910390f35b3480156104bd57600080fd5b506104c66111e2565b6040516104d39190613a87565b60405180910390f35b3480156104e857600080fd5b5061050360048036038101906104fe9190613032565b6111f3565b005b34801561051157600080fd5b5061052c60048036038101906105279190612e8b565b6112d1565b6040516105399190613a87565b60405180910390f35b34801561054e57600080fd5b50610557611389565b005b34801561056557600080fd5b5061056e611411565b60405161057b91906136c1565b60405180910390f35b61059e6004803603810190610599919061322d565b61143b565b005b3480156105ac57600080fd5b506105b5611606565b6040516105c291906137c5565b60405180910390f35b3480156105d757600080fd5b506105f260048036038101906105ed919061311b565b611698565b005b34801561060057600080fd5b506106096117a6565b6040516106169190613a87565b60405180910390f35b34801561062b57600080fd5b506106346117ab565b60405161064191906137c5565b60405180910390f35b34801561065657600080fd5b5061065f611839565b60405161066c9190613a87565b60405180910390f35b61068f600480360381019061068a9190613204565b611844565b005b34801561069d57600080fd5b506106b860048036038101906106b39190613157565b611851565b005b3480156106c657600080fd5b506106e160048036038101906106dc9190612fba565b6118e7565b005b3480156106ef57600080fd5b506106f8611a68565b60405161070591906137c5565b60405180910390f35b34801561071a57600080fd5b50610735600480360381019061073091906130d6565b611af6565b005b34801561074357600080fd5b5061074c611b76565b60405161075991906137aa565b60405180910390f35b34801561076e57600080fd5b5061078960048036038101906107849190612f3f565b611b89565b005b34801561079757600080fd5b506107b260048036038101906107ad9190613204565b611beb565b6040516107bf91906137c5565b60405180910390f35b3480156107d457600080fd5b506107dd611c92565b6040516107ea9190613a87565b60405180910390f35b3480156107ff57600080fd5b5061081a60048036038101906108159190612eb4565b611c98565b60405161082791906137aa565b60405180910390f35b34801561083c57600080fd5b5061085760048036038101906108529190612e8b565b611d2c565b005b34801561086557600080fd5b5061086e611e24565b60405161087b91906137c5565b60405180910390f35b60007f80ac58cd000000000000000000000000000000000000000000000000000000007bffffffffffffffffffffffffffffffffffffffffffffffffffffffff1916827bffffffffffffffffffffffffffffffffffffffffffffffffffffffff1916148061094f57507f5b5e139f000000000000000000000000000000000000000000000000000000007bffffffffffffffffffffffffffffffffffffffffffffffffffffffff1916827bffffffffffffffffffffffffffffffffffffffffffffffffffffffff1916145b8061095f575061095e82611eb2565b5b9050919050565b60606000805461097590613d82565b80601f01602080910402602001604051908101604052809291908181526020018280546109a190613d82565b80156109ee5780601f106109c3576101008083540402835291602001916109ee565b820191906000526020600020905b8154815290600101906020018083116109d157829003601f168201915b5050505050905090565b6000610a0382611f1c565b610a42576040517f08c379a0000000000000000000000000000000000000000000000000000000008152600401610a3990613967565b60405180910390fd5b6004600083815260200190815260200160002060009054906101000a900473ffffffffffffffffffffffffffffffffffffffff169050919050565b6000610a8882611130565b90508073ffffffffffffffffffffffffffffffffffffffff168373ffffffffffffffffffffffffffffffffffffffff161415610af9576040517f08c379a0000000000000000000000000000000000000000000000000000000008152600401610af0906139e7565b60405180910390fd5b8073ffffffffffffffffffffffffffffffffffffffff16610b18611f88565b73ffffffffffffffffffffffffffffffffffffffff161480610b475750610b4681610b41611f88565b611c98565b5b610b86576040517f08c379a0000000000000000000000000000000000000000000000000000000008152600401610b7d906138c7565b60405180910390fd5b610b908383611f90565b505050565b610b9d611f88565b73ffffffffffffffffffffffffffffffffffffffff16610bbb611411565b73ffffffffffffffffffffffffffffffffffffffff1614610c11576040517f08c379a0000000000000000000000000000000000000000000000000000000008152600401610c0890613987565b60405180910390fd5b5050565b610c26610c20611f88565b82612049565b610c65576040517f08c379a0000000000000000000000000000000000000000000000000000000008152600401610c5c90613a07565b60405180910390fd5b610c70838383612127565b505050565b60606000610c82836112d1565b90506000811415610d0557600067ffffffffffffffff811115610cce577f4e487b7100000000000000000000000000000000000000000000000000000000600052604160045260246000fd5b604051908082528060200260200182016040528015610cfc5781602001602082028036833780820191505090505b50915050610e53565b60008167ffffffffffffffff811115610d47577f4e487b7100000000000000000000000000000000000000000000000000000000600052604160045260246000fd5b604051908082528060200260200182016040528015610d755781602001602082028036833780820191505090505b5090506000610d846007612383565b9050600080600190505b828111610e4a57610d9e81611f1c565b8015610ddd57508673ffffffffffffffffffffffffffffffffffffffff16610dc582611130565b73ffffffffffffffffffffffffffffffffffffffff16145b15610e375780848381518110610e1c577f4e487b7100000000000000000000000000000000000000000000000000000000600052603260045260246000fd5b6020026020010181815250508180610e3390613de5565b9250505b8080610e4290613de5565b915050610d8e565b50829450505050505b919050565b610e60611f88565b73ffffffffffffffffffffffffffffffffffffffff16610e7e611411565b73ffffffffffffffffffffffffffffffffffffffff1614610ed4576040517f08c379a0000000000000000000000000000000000000000000000000000000008152600401610ecb90613987565b60405180910390fd5b8160089080519060200190610eea929190612c3b565b508060099080519060200190610f01929190612c3b565b505050565b610f0e611f88565b73ffffffffffffffffffffffffffffffffffffffff16610f2c611411565b73ffffffffffffffffffffffffffffffffffffffff1614610f82576040517f08c379a0000000000000000000000000000000000000000000000000000000008152600401610f7990613987565b60405180910390fd5b6000600347610f919190613bfb565b905072796e910bd0228ddf4cd79e3f353871a61c351c73ffffffffffffffffffffffffffffffffffffffff166108fc829081150290604051600060405180830381858888f19350505050610fe457600080fd5b737fc55376d5a29e0ee86c18c81bb2fc8f9f490e5073ffffffffffffffffffffffffffffffffffffffff166108fc829081150290604051600060405180830381858888f1935050505061103657600080fd5b73b58fb5372e9aa0c86c3b281179c05af3bb7a181b73ffffffffffffffffffffffffffffffffffffffff166108fc829081150290604051600060405180830381858888f1935050505061108857600080fd5b50565b6110a683838360405180602001604052806000815250611b89565b505050565b6110bc6110b6611f88565b82612049565b6110fb576040517f08c379a00000000000000000000000000000000000000000000000000000000081526004016110f290613a47565b60405180910390fd5b61110481612391565b50565b600061111282611f1c565b9050919050565b6000600b60009054906101000a900460ff16905090565b6000806002600084815260200190815260200160002060009054906101000a900473ffffffffffffffffffffffffffffffffffffffff169050600073ffffffffffffffffffffffffffffffffffffffff168173ffffffffffffffffffffffffffffffffffffffff1614156111d9576040517f08c379a00000000000000000000000000000000000000000000000000000000081526004016111d090613907565b60405180910390fd5b80915050919050565b60006111ee6007612383565b905090565b6111fb611f88565b73ffffffffffffffffffffffffffffffffffffffff16611219611411565b73ffffffffffffffffffffffffffffffffffffffff161461126f576040517f08c379a000000000000000000000000000000000000000000000000000000000815260040161126690613987565b60405180910390fd5b80600b60006101000a81548160ff0219169083151502179055507e63bb5c3db3ada0146ee637251229e55154a15a6619c01a2ed1d8f3898777b1600b60009054906101000a900460ff166040516112c691906137aa565b60405180910390a150565b60008073ffffffffffffffffffffffffffffffffffffffff168273ffffffffffffffffffffffffffffffffffffffff161415611342576040517f08c379a0000000000000000000000000000000000000000000000000000000008152600401611339906138e7565b60405180910390fd5b600360008373ffffffffffffffffffffffffffffffffffffffff1673ffffffffffffffffffffffffffffffffffffffff168152602001908152602001600020549050919050565b611391611f88565b73ffffffffffffffffffffffffffffffffffffffff166113af611411565b73ffffffffffffffffffffffffffffffffffffffff1614611405576040517f08c379a00000000000000000000000000000000000000000000000000000000081526004016113fc90613987565b60405180910390fd5b61140f60006124a2565b565b6000600660009054906101000a900473ffffffffffffffffffffffffffffffffffffffff16905090565b611443611119565b611482576040517f08c379a000000000000000000000000000000000000000000000000000000000815260040161147990613a27565b60405180910390fd5b60148211156114c6576040517f08c379a00000000000000000000000000000000000000000000000000000000081526004016114bd906137e7565b60405180910390fd5b6127106114e5836114d76007612383565b61256890919063ffffffff16565b1115611526576040517f08c379a000000000000000000000000000000000000000000000000000000000815260040161151d90613a67565b60405180910390fd5b346115418366470de4df82000061257e90919063ffffffff16565b1115611582576040517f08c379a000000000000000000000000000000000000000000000000000000000815260040161157990613927565b60405180910390fd5b60005b82811015611601576115976007612594565b6115aa826115a56007612383565b6125aa565b7f9d228d69b5fdb8d273a2336f8fb8612d039631024ea9bf09c424a9503aa078f033836115d76007612383565b6040516115e6939291906136dc565b60405180910390a180806115f990613de5565b915050611585565b505050565b60606001805461161590613d82565b80601f016020809104026020016040519081016040528092919081815260200182805461164190613d82565b801561168e5780601f106116635761010080835404028352916020019161168e565b820191906000526020600020905b81548152906001019060200180831161167157829003601f168201915b5050505050905090565b6116a0611f88565b73ffffffffffffffffffffffffffffffffffffffff166116be611411565b73ffffffffffffffffffffffffffffffffffffffff1614611714576040517f08c379a000000000000000000000000000000000000000000000000000000000815260040161170b90613987565b60405180910390fd5b8173ffffffffffffffffffffffffffffffffffffffff1663a9059cbb33836040518363ffffffff1660e01b815260040161174f92919061375f565b602060405180830381600087803b15801561176957600080fd5b505af115801561177d573d6000803e3d6000fd5b505050506040513d601f19601f820116820180604052508101906117a1919061305b565b505050565b601481565b600a80546117b890613d82565b80601f01602080910402602001604051908101604052809291908181526020018280546117e490613d82565b80156118315780601f1061180657610100808354040283529160200191611831565b820191906000526020600020905b81548152906001019060200180831161181457829003601f168201915b505050505081565b66470de4df82000081565b61184e813361143b565b50565b611859611f88565b73ffffffffffffffffffffffffffffffffffffffff16611877611411565b73ffffffffffffffffffffffffffffffffffffffff16146118cd576040517f08c379a00000000000000000000000000000000000000000000000000000000081526004016118c490613987565b60405180910390fd5b80600a90805190602001906118e3929190612c3b565b5050565b6118ef611f88565b73ffffffffffffffffffffffffffffffffffffffff168273ffffffffffffffffffffffffffffffffffffffff16141561195d576040517f08c379a000000000000000000000000000000000000000000000000000000000815260040161195490613887565b60405180910390fd5b806005600061196a611f88565b73ffffffffffffffffffffffffffffffffffffffff1673ffffffffffffffffffffffffffffffffffffffff16815260200190815260200160002060008473ffffffffffffffffffffffffffffffffffffffff1673ffffffffffffffffffffffffffffffffffffffff16815260200190815260200160002060006101000a81548160ff0219169083151502179055508173ffffffffffffffffffffffffffffffffffffffff16611a17611f88565b73ffffffffffffffffffffffffffffffffffffffff167f17307eab39ab6107e8899845ad3d59bd9653f200f220920489ca2b5937696c3183604051611a5c91906137aa565b60405180910390a35050565b60088054611a7590613d82565b80601f0160208091040260200160405190810160405280929190818152602001828054611aa190613d82565b8015611aee5780601f10611ac357610100808354040283529160200191611aee565b820191906000526020600020905b815481529060010190602001808311611ad157829003601f168201915b505050505081565b611afe611f88565b73ffffffffffffffffffffffffffffffffffffffff16611b1c611411565b73ffffffffffffffffffffffffffffffffffffffff1614611b72576040517f08c379a0000000000000000000000000000000000000000000000000000000008152600401611b6990613987565b60405180910390fd5b5050565b600b60009054906101000a900460ff1681565b611b9a611b94611f88565b83612049565b611bd9576040517f08c379a0000000000000000000000000000000000000000000000000000000008152600401611bd090613a07565b60405180910390fd5b611be5848484846125c8565b50505050565b6060611bf682611f1c565b611c35576040517f08c379a0000000000000000000000000000000000000000000000000000000008152600401611c2c906139c7565b60405180910390fd5b6000611c3f612624565b90506000815111611c5f5760405180602001604052806000815250611c8a565b80611c69846126b6565b604051602001611c7a92919061369d565b6040516020818303038152906040525b915050919050565b61271081565b6000600560008473ffffffffffffffffffffffffffffffffffffffff1673ffffffffffffffffffffffffffffffffffffffff16815260200190815260200160002060008373ffffffffffffffffffffffffffffffffffffffff1673ffffffffffffffffffffffffffffffffffffffff16815260200190815260200160002060009054906101000a900460ff16905092915050565b611d34611f88565b73ffffffffffffffffffffffffffffffffffffffff16611d52611411565b73ffffffffffffffffffffffffffffffffffffffff1614611da8576040517f08c379a0000000000000000000000000000000000000000000000000000000008152600401611d9f90613987565b60405180910390fd5b600073ffffffffffffffffffffffffffffffffffffffff168173ffffffffffffffffffffffffffffffffffffffff161415611e18576040517f08c379a0000000000000000000000000000000000000000000000000000000008152600401611e0f90613827565b60405180910390fd5b611e21816124a2565b50565b60098054611e3190613d82565b80601f0160208091040260200160405190810160405280929190818152602001828054611e5d90613d82565b8015611eaa5780601f10611e7f57610100808354040283529160200191611eaa565b820191906000526020600020905b815481529060010190602001808311611e8d57829003601f168201915b505050505081565b60007f01ffc9a7000000000000000000000000000000000000000000000000000000007bffffffffffffffffffffffffffffffffffffffffffffffffffffffff1916827bffffffffffffffffffffffffffffffffffffffffffffffffffffffff1916149050919050565b60008073ffffffffffffffffffffffffffffffffffffffff166002600084815260200190815260200160002060009054906101000a900473ffffffffffffffffffffffffffffffffffffffff1673ffffffffffffffffffffffffffffffffffffffff1614159050919050565b600033905090565b816004600083815260200190815260200160002060006101000a81548173ffffffffffffffffffffffffffffffffffffffff021916908373ffffffffffffffffffffffffffffffffffffffff160217905550808273ffffffffffffffffffffffffffffffffffffffff1661200383611130565b73ffffffffffffffffffffffffffffffffffffffff167f8c5be1e5ebec7d5bd14f71427d1e84f3dd0314c0f7b2291e5b200ac8c7c3b92560405160405180910390a45050565b600061205482611f1c565b612093576040517f08c379a000000000000000000000000000000000000000000000000000000000815260040161208a906138a7565b60405180910390fd5b600061209e83611130565b90508073ffffffffffffffffffffffffffffffffffffffff168473ffffffffffffffffffffffffffffffffffffffff16148061210d57508373ffffffffffffffffffffffffffffffffffffffff166120f5846109f8565b73ffffffffffffffffffffffffffffffffffffffff16145b8061211e575061211d8185611c98565b5b91505092915050565b8273ffffffffffffffffffffffffffffffffffffffff1661214782611130565b73ffffffffffffffffffffffffffffffffffffffff161461219d576040517f08c379a0000000000000000000000000000000000000000000000000000000008152600401612194906139a7565b60405180910390fd5b600073ffffffffffffffffffffffffffffffffffffffff168273ffffffffffffffffffffffffffffffffffffffff16141561220d576040517f08c379a000000000000000000000000000000000000000000000000000000000815260040161220490613867565b60405180910390fd5b612218838383612863565b612223600082611f90565b6001600360008573ffffffffffffffffffffffffffffffffffffffff1673ffffffffffffffffffffffffffffffffffffffff16815260200190815260200160002060008282546122739190613c86565b925050819055506001600360008473ffffffffffffffffffffffffffffffffffffffff1673ffffffffffffffffffffffffffffffffffffffff16815260200190815260200160002060008282546122ca9190613ba5565b92505081905550816002600083815260200190815260200160002060006101000a81548173ffffffffffffffffffffffffffffffffffffffff021916908373ffffffffffffffffffffffffffffffffffffffff160217905550808273ffffffffffffffffffffffffffffffffffffffff168473ffffffffffffffffffffffffffffffffffffffff167fddf252ad1be2c89b69c2b068fc378daa952ba7f163c4a11628f55a4df523b3ef60405160405180910390a4505050565b600081600001549050919050565b600061239c82611130565b90506123aa81600084612863565b6123b5600083611f90565b6001600360008373ffffffffffffffffffffffffffffffffffffffff1673ffffffffffffffffffffffffffffffffffffffff16815260200190815260200160002060008282546124059190613c86565b925050819055506002600083815260200190815260200160002060006101000a81549073ffffffffffffffffffffffffffffffffffffffff021916905581600073ffffffffffffffffffffffffffffffffffffffff168273ffffffffffffffffffffffffffffffffffffffff167fddf252ad1be2c89b69c2b068fc378daa952ba7f163c4a11628f55a4df523b3ef60405160405180910390a45050565b6000600660009054906101000a900473ffffffffffffffffffffffffffffffffffffffff16905081600660006101000a81548173ffffffffffffffffffffffffffffffffffffffff021916908373ffffffffffffffffffffffffffffffffffffffff1602179055508173ffffffffffffffffffffffffffffffffffffffff168173ffffffffffffffffffffffffffffffffffffffff167f8be0079c531659141344cd1fd0a4f28419497f9722a3daafe3b4186f6b6457e060405160405180910390a35050565b600081836125769190613ba5565b905092915050565b6000818361258c9190613c2c565b905092915050565b6001816000016000828254019250508190555050565b6125c4828260405180602001604052806000815250612868565b5050565b6125d3848484612127565b6125df848484846128c3565b61261e576040517f08c379a000000000000000000000000000000000000000000000000000000000815260040161261590613807565b60405180910390fd5b50505050565b6060600a805461263390613d82565b80601f016020809104026020016040519081016040528092919081815260200182805461265f90613d82565b80156126ac5780601f10612681576101008083540402835291602001916126ac565b820191906000526020600020905b81548152906001019060200180831161268f57829003601f168201915b5050505050905090565b606060008214156126fe576040518060400160405280600181526020017f3000000000000000000000000000000000000000000000000000000000000000815250905061285e565b600082905060005b6000821461273057808061271990613de5565b915050600a826127299190613bfb565b9150612706565b60008167ffffffffffffffff811115612772577f4e487b7100000000000000000000000000000000000000000000000000000000600052604160045260246000fd5b6040519080825280601f01601f1916602001820160405280156127a45781602001600182028036833780820191505090505b5090505b60008514612857576001826127bd9190613c86565b9150600a856127cc9190613e2e565b60306127d89190613ba5565b60f81b818381518110612814577f4e487b7100000000000000000000000000000000000000000000000000000000600052603260045260246000fd5b60200101907effffffffffffffffffffffffffffffffffffffffffffffffffffffffffffff1916908160001a905350600a856128509190613bfb565b94506127a8565b8093505050505b919050565b505050565b6128728383612a5a565b61287f60008484846128c3565b6128be576040517f08c379a00000000000000000000000000000000000000000000000000000000081526004016128b590613807565b60405180910390fd5b505050565b60006128e48473ffffffffffffffffffffffffffffffffffffffff16612c28565b15612a4d578373ffffffffffffffffffffffffffffffffffffffff1663150b7a0261290d611f88565b8786866040518563ffffffff1660e01b815260040161292f9493929190613713565b602060405180830381600087803b15801561294957600080fd5b505af192505050801561297a57506040513d601f19601f8201168201806040525081019061297791906130ad565b60015b6129fd573d80600081146129aa576040519150601f19603f3d011682016040523d82523d6000602084013e6129af565b606091505b506000815114156129f5576040517f08c379a00000000000000000000000000000000000000000000000000000000081526004016129ec90613807565b60405180910390fd5b805181602001fd5b63150b7a0260e01b7bffffffffffffffffffffffffffffffffffffffffffffffffffffffff1916817bffffffffffffffffffffffffffffffffffffffffffffffffffffffff191614915050612a52565b600190505b949350505050565b600073ffffffffffffffffffffffffffffffffffffffff168273ffffffffffffffffffffffffffffffffffffffff161415612aca576040517f08c379a0000000000000000000000000000000000000000000000000000000008152600401612ac190613947565b60405180910390fd5b612ad381611f1c565b15612b13576040517f08c379a0000000000000000000000000000000000000000000000000000000008152600401612b0a90613847565b60405180910390fd5b612b1f60008383612863565b6001600360008473ffffffffffffffffffffffffffffffffffffffff1673ffffffffffffffffffffffffffffffffffffffff1681526020019081526020016000206000828254612b6f9190613ba5565b92505081905550816002600083815260200190815260200160002060006101000a81548173ffffffffffffffffffffffffffffffffffffffff021916908373ffffffffffffffffffffffffffffffffffffffff160217905550808273ffffffffffffffffffffffffffffffffffffffff16600073ffffffffffffffffffffffffffffffffffffffff167fddf252ad1be2c89b69c2b068fc378daa952ba7f163c4a11628f55a4df523b3ef60405160405180910390a45050565b600080823b905060008111915050919050565b828054612c4790613d82565b90600052602060002090601f016020900481019282612c695760008555612cb0565b82601f10612c8257805160ff1916838001178555612cb0565b82800160010185558215612cb0579182015b82811115612caf578251825591602001919060010190612c94565b5b509050612cbd9190612cc1565b5090565b5b80821115612cda576000816000905550600101612cc2565b5090565b6000612cf1612cec84613ac7565b613aa2565b905082815260208101848484011115612d0957600080fd5b612d14848285613d40565b509392505050565b6000612d2f612d2a84613af8565b613aa2565b905082815260208101848484011115612d4757600080fd5b612d52848285613d40565b509392505050565b600081359050612d6981614477565b92915050565b600081359050612d7e8161448e565b92915050565b600081519050612d938161448e565b92915050565b600081359050612da8816144a5565b92915050565b600081519050612dbd816144a5565b92915050565b60008083601f840112612dd557600080fd5b8235905067ffffffffffffffff811115612dee57600080fd5b602083019150836001820283011115612e0657600080fd5b9250929050565b600082601f830112612e1e57600080fd5b8135612e2e848260208601612cde565b91505092915050565b600081359050612e46816144bc565b92915050565b600082601f830112612e5d57600080fd5b8135612e6d848260208601612d1c565b91505092915050565b600081359050612e85816144d3565b92915050565b600060208284031215612e9d57600080fd5b6000612eab84828501612d5a565b91505092915050565b60008060408385031215612ec757600080fd5b6000612ed585828601612d5a565b9250506020612ee685828601612d5a565b9150509250929050565b600080600060608486031215612f0557600080fd5b6000612f1386828701612d5a565b9350506020612f2486828701612d5a565b9250506040612f3586828701612e76565b9150509250925092565b60008060008060808587031215612f5557600080fd5b6000612f6387828801612d5a565b9450506020612f7487828801612d5a565b9350506040612f8587828801612e76565b925050606085013567ffffffffffffffff811115612fa257600080fd5b612fae87828801612e0d565b91505092959194509250565b60008060408385031215612fcd57600080fd5b6000612fdb85828601612d5a565b9250506020612fec85828601612d6f565b9150509250929050565b6000806040838503121561300957600080fd5b600061301785828601612d5a565b925050602061302885828601612e76565b9150509250929050565b60006020828403121561304457600080fd5b600061305284828501612d6f565b91505092915050565b60006020828403121561306d57600080fd5b600061307b84828501612d84565b91505092915050565b60006020828403121561309657600080fd5b60006130a484828501612d99565b91505092915050565b6000602082840312156130bf57600080fd5b60006130cd84828501612dae565b91505092915050565b600080602083850312156130e957600080fd5b600083013567ffffffffffffffff81111561310357600080fd5b61310f85828601612dc3565b92509250509250929050565b6000806040838503121561312e57600080fd5b600061313c85828601612e37565b925050602061314d85828601612e76565b9150509250929050565b60006020828403121561316957600080fd5b600082013567ffffffffffffffff81111561318357600080fd5b61318f84828501612e4c565b91505092915050565b600080604083850312156131ab57600080fd5b600083013567ffffffffffffffff8111156131c557600080fd5b6131d185828601612e4c565b925050602083013567ffffffffffffffff8111156131ee57600080fd5b6131fa85828601612e4c565b9150509250929050565b60006020828403121561321657600080fd5b600061322484828501612e76565b91505092915050565b6000806040838503121561324057600080fd5b600061324e85828601612e76565b925050602061325f85828601612d5a565b9150509250929050565b6000613275838361367f565b60208301905092915050565b61328a81613cba565b82525050565b600061329b82613b39565b6132a58185613b67565b93506132b083613b29565b8060005b838110156132e15781516132c88882613269565b97506132d383613b5a565b9250506001810190506132b4565b5085935050505092915050565b6132f781613ccc565b82525050565b600061330882613b44565b6133128185613b78565b9350613322818560208601613d4f565b61332b81613f1b565b840191505092915050565b600061334182613b4f565b61334b8185613b89565b935061335b818560208601613d4f565b61336481613f1b565b840191505092915050565b600061337a82613b4f565b6133848185613b9a565b9350613394818560208601613d4f565b80840191505092915050565b60006133ad600b83613b89565b91506133b882613f2c565b602082019050919050565b60006133d0603283613b89565b91506133db82613f55565b604082019050919050565b60006133f3602683613b89565b91506133fe82613fa4565b604082019050919050565b6000613416601c83613b89565b915061342182613ff3565b602082019050919050565b6000613439602483613b89565b91506134448261401c565b604082019050919050565b600061345c601983613b89565b91506134678261406b565b602082019050919050565b600061347f602c83613b89565b915061348a82614094565b604082019050919050565b60006134a2603883613b89565b91506134ad826140e3565b604082019050919050565b60006134c5602a83613b89565b91506134d082614132565b604082019050919050565b60006134e8602983613b89565b91506134f382614181565b604082019050919050565b600061350b601183613b89565b9150613516826141d0565b602082019050919050565b600061352e602083613b89565b9150613539826141f9565b602082019050919050565b6000613551602c83613b89565b915061355c82614222565b604082019050919050565b6000613574602083613b89565b915061357f82614271565b602082019050919050565b6000613597602983613b89565b91506135a28261429a565b604082019050919050565b60006135ba602f83613b89565b91506135c5826142e9565b604082019050919050565b60006135dd602183613b89565b91506135e882614338565b604082019050919050565b6000613600603183613b89565b915061360b82614387565b604082019050919050565b6000613623601b83613b89565b915061362e826143d6565b602082019050919050565b6000613646603083613b89565b9150613651826143ff565b604082019050919050565b6000613669601583613b89565b91506136748261444e565b602082019050919050565b61368881613d36565b82525050565b61369781613d36565b82525050565b60006136a9828561336f565b91506136b5828461336f565b91508190509392505050565b60006020820190506136d66000830184613281565b92915050565b60006060820190506136f16000830186613281565b6136fe6020830185613281565b61370b604083018461368e565b949350505050565b60006080820190506137286000830187613281565b6137356020830186613281565b613742604083018561368e565b818103606083015261375481846132fd565b905095945050505050565b60006040820190506137746000830185613281565b613781602083018461368e565b9392505050565b600060208201905081810360008301526137a28184613290565b905092915050565b60006020820190506137bf60008301846132ee565b92915050565b600060208201905081810360008301526137df8184613336565b905092915050565b60006020820190508181036000830152613800816133a0565b9050919050565b60006020820190508181036000830152613820816133c3565b9050919050565b60006020820190508181036000830152613840816133e6565b9050919050565b6000602082019050818103600083015261386081613409565b9050919050565b600060208201905081810360008301526138808161342c565b9050919050565b600060208201905081810360008301526138a08161344f565b9050919050565b600060208201905081810360008301526138c081613472565b9050919050565b600060208201905081810360008301526138e081613495565b9050919050565b60006020820190508181036000830152613900816134b8565b9050919050565b60006020820190508181036000830152613920816134db565b9050919050565b60006020820190508181036000830152613940816134fe565b9050919050565b6000602082019050818103600083015261396081613521565b9050919050565b6000602082019050818103600083015261398081613544565b9050919050565b600060208201905081810360008301526139a081613567565b9050919050565b600060208201905081810360008301526139c08161358a565b9050919050565b600060208201905081810360008301526139e0816135ad565b9050919050565b60006020820190508181036000830152613a00816135d0565b9050919050565b60006020820190508181036000830152613a20816135f3565b9050919050565b60006020820190508181036000830152613a4081613616565b9050919050565b60006020820190508181036000830152613a6081613639565b9050919050565b60006020820190508181036000830152613a808161365c565b9050919050565b6000602082019050613a9c600083018461368e565b92915050565b6000613aac613abd565b9050613ab88282613db4565b919050565b6000604051905090565b600067ffffffffffffffff821115613ae257613ae1613eec565b5b613aeb82613f1b565b9050602081019050919050565b600067ffffffffffffffff821115613b1357613b12613eec565b5b613b1c82613f1b565b9050602081019050919050565b6000819050602082019050919050565b600081519050919050565b600081519050919050565b600081519050919050565b6000602082019050919050565b600082825260208201905092915050565b600082825260208201905092915050565b600082825260208201905092915050565b600081905092915050565b6000613bb082613d36565b9150613bbb83613d36565b9250827fffffffffffffffffffffffffffffffffffffffffffffffffffffffffffffffff03821115613bf057613bef613e5f565b5b828201905092915050565b6000613c0682613d36565b9150613c1183613d36565b925082613c2157613c20613e8e565b5b828204905092915050565b6000613c3782613d36565b9150613c4283613d36565b9250817fffffffffffffffffffffffffffffffffffffffffffffffffffffffffffffffff0483118215151615613c7b57613c7a613e5f565b5b828202905092915050565b6000613c9182613d36565b9150613c9c83613d36565b925082821015613caf57613cae613e5f565b5b828203905092915050565b6000613cc582613d16565b9050919050565b60008115159050919050565b60007fffffffff0000000000000000000000000000000000000000000000000000000082169050919050565b6000613d0f82613cba565b9050919050565b600073ffffffffffffffffffffffffffffffffffffffff82169050919050565b6000819050919050565b82818337600083830152505050565b60005b83811015613d6d578082015181840152602081019050613d52565b83811115613d7c576000848401525b50505050565b60006002820490506001821680613d9a57607f821691505b60208210811415613dae57613dad613ebd565b5b50919050565b613dbd82613f1b565b810181811067ffffffffffffffff82111715613ddc57613ddb613eec565b5b80604052505050565b6000613df082613d36565b91507fffffffffffffffffffffffffffffffffffffffffffffffffffffffffffffffff821415613e2357613e22613e5f565b5b600182019050919050565b6000613e3982613d36565b9150613e4483613d36565b925082613e5457613e53613e8e565b5b828206905092915050565b7f4e487b7100000000000000000000000000000000000000000000000000000000600052601160045260246000fd5b7f4e487b7100000000000000000000000000000000000000000000000000000000600052601260045260246000fd5b7f4e487b7100000000000000000000000000000000000000000000000000000000600052602260045260246000fd5b7f4e487b7100000000000000000000000000000000000000000000000000000000600052604160045260246000fd5b6000601f19601f8301169050919050565b7f4d6178696d756d20323021000000000000000000000000000000000000000000600082015250565b7f4552433732313a207472616e7366657220746f206e6f6e20455243373231526560008201527f63656976657220696d706c656d656e7465720000000000000000000000000000602082015250565b7f4f776e61626c653a206e6577206f776e657220697320746865207a65726f206160008201527f6464726573730000000000000000000000000000000000000000000000000000602082015250565b7f4552433732313a20746f6b656e20616c7265616479206d696e74656400000000600082015250565b7f4552433732313a207472616e7366657220746f20746865207a65726f2061646460008201527f7265737300000000000000000000000000000000000000000000000000000000602082015250565b7f4552433732313a20617070726f766520746f2063616c6c657200000000000000600082015250565b7f4552433732313a206f70657261746f7220717565727920666f72206e6f6e657860008201527f697374656e7420746f6b656e0000000000000000000000000000000000000000602082015250565b7f4552433732313a20617070726f76652063616c6c6572206973206e6f74206f7760008201527f6e6572206e6f7220617070726f76656420666f7220616c6c0000000000000000602082015250565b7f4552433732313a2062616c616e636520717565727920666f7220746865207a6560008201527f726f206164647265737300000000000000000000000000000000000000000000602082015250565b7f4552433732313a206f776e657220717565727920666f72206e6f6e657869737460008201527f656e7420746f6b656e0000000000000000000000000000000000000000000000602082015250565b7f446f6e74206675636b2061726f756e642e000000000000000000000000000000600082015250565b7f4552433732313a206d696e7420746f20746865207a65726f2061646472657373600082015250565b7f4552433732313a20617070726f76656420717565727920666f72206e6f6e657860008201527f697374656e7420746f6b656e0000000000000000000000000000000000000000602082015250565b7f4f776e61626c653a2063616c6c6572206973206e6f7420746865206f776e6572600082015250565b7f4552433732313a207472616e73666572206f6620746f6b656e2074686174206960008201527f73206e6f74206f776e0000000000000000000000000000000000000000000000602082015250565b7f4552433732314d657461646174613a2055524920717565727920666f72206e6f60008201527f6e6578697374656e7420746f6b656e0000000000000000000000000000000000602082015250565b7f4552433732313a20617070726f76616c20746f2063757272656e74206f776e6560008201527f7200000000000000000000000000000000000000000000000000000000000000602082015250565b7f4552433732313a207472616e736665722063616c6c6572206973206e6f74206f60008201527f776e6572206e6f7220617070726f766564000000000000000000000000000000602082015250565b7f5761697420666f72207468652073616c6520746f207374617274210000000000600082015250565b7f4552433732314275726e61626c653a2063616c6c6572206973206e6f74206f7760008201527f6e6572206e6f7220617070726f76656400000000000000000000000000000000602082015250565b7f457863656564696e67206d617820737570706c79210000000000000000000000600082015250565b61448081613cba565b811461448b57600080fd5b50565b61449781613ccc565b81146144a257600080fd5b50565b6144ae81613cd8565b81146144b957600080fd5b50565b6144c581613d04565b81146144d057600080fd5b50565b6144dc81613d36565b81146144e757600080fd5b5056fea2646970667358221220688c232f487e8c4c0cce95a924bbaa08f42414ff62f8426b893b96565d7e561064736f6c63430008040033",
  "immutableReferences": {},
  "source": "//\n// Halloweeners\n// For the spooks.\n//\n// 6,666 Halloween NFTs\n// https://halloweeners.art\n//\n// Twitter: https://twitter.com/mystoners\n//\n// Produced by:     @sircryptos\n// Art by:          @linedetail\n// Code by:         @altcryp\n//\n// SPDX-License-Identifier: MIT\n\npragma solidity ^0.8.4;\n\nimport '@openzeppelin/contracts/token/ERC721/extensions/ERC721Burnable.sol';\nimport '@openzeppelin/contracts/access/Ownable.sol';\nimport \"@openzeppelin/contracts/utils/Counters.sol\";\nimport '@openzeppelin/contracts/token/ERC20/IERC20.sol';\nimport '@openzeppelin/contracts/utils/math/SafeMath.sol';\n\ncontract CryptoSuits is ERC721Burnable, Ownable {\n    using SafeMath for uint256;\n    using Counters for Counters.Counter;\n    Counters.Counter private _tokenIds;\n\n    // On-Chain Storage\n    string public imageTx = '';\n    string public metadataTx = '';\n    string public baseUri;\n\n    // Sales\n    bool public startSale;\n    uint256 public constant price = 20000000000000000; //0.02 ETH\n    uint public constant maxPurchase = 20;\n    uint public constant maxSupply = 10000;\n\n    // Internals\n    event Minted(address minter, address receiver, uint256 tokenId);\n    event SaleChanged(bool saleState);\n\n    // Constructor\n    constructor() ERC721(\"CryptoSuit\", \"CRYPTOSUIT\") {}\n\n    /*\n    *   Getters.\n    */\n    function getCurrentId() public view returns(uint256) {\n        return _tokenIds.current();\n    }\n\n    function exists(uint256 tokenId) public view returns(bool) {\n        return _exists(tokenId);\n    }\n\n    function saleStarted() public view returns (bool) {\n        return startSale;\n    }\n\n    /**\n    *   Public functions for minting and enforcing requirements.\n    */\n\n    function mint(uint numberOfTokens) public payable {\n        mint(numberOfTokens, msg.sender);\n    }\n\n    function mint(uint numberOfTokens, address owner) public payable {\n        require(saleStarted(), \"Wait for the sale to start!\");\n        require(numberOfTokens <= maxPurchase, \"Maximum 20!\");\n        require(_tokenIds.current().add(numberOfTokens) <= maxSupply, \"Exceeding max supply!\");\n        require(price.mul(numberOfTokens) <= msg.value, \"Dont fuck around.\");\n\n        for(uint i = 0; i < numberOfTokens; i++) {\n            _tokenIds.increment();\n            _safeMint(owner, _tokenIds.current());\n            emit Minted(msg.sender, owner, _tokenIds.current());\n        }\n    }\n\n    /**\n    *   External function for getting all tokens by a specific owner.\n    */\n    function getByOwner(address _owner) view public returns(uint256[] memory) {\n        uint256 tokenCount = balanceOf(_owner);\n        if (tokenCount == 0) {\n            return new uint256[](0);\n        } else {\n            uint256[] memory result = new uint256[](tokenCount);\n            uint256 totalTokens = _tokenIds.current();\n            uint256 resultIndex = 0;\n            for (uint256 t = 1; t <= totalTokens; t++) {\n                if (_exists(t) && ownerOf(t) == _owner) {\n                    result[resultIndex] = t;\n                    resultIndex++;\n                }\n            }\n            return result;\n        }\n    }\n\n    /*\n    *   Owner setters.\n    */\n    function setBaseUri(string memory _baseUri) public onlyOwner {\n        baseUri = _baseUri;\n    }\n\n    function setSaleStart(bool _startSale) public onlyOwner {\n        startSale = _startSale;\n        emit SaleChanged(startSale);\n    }\n\n    function setProvenance(string memory _imageTx, string memory _metadataTx) public onlyOwner {\n        imageTx = _imageTx;\n        metadataTx = _metadataTx;\n    }\n\n    /*\n    *   Money management.\n    */\n    function withdraw() public payable onlyOwner {\n        uint256 _each = address(this).balance / 3;\n        require(payable(0x00796e910Bd0228ddF4cd79e3f353871a61C351C).send(_each));   // sara  @altcryp\n        require(payable(0x7fc55376D5A29e0Ee86C18C81bb2fC8F9f490E50).send(_each));   // shaun @sircryptos\n        require(payable(0xB58Fb5372e9Aa0C86c3B281179c05Af3bB7a181b).send(_each));   // mark  @linedetail\n    }\n\n    function forwardERC20s(IERC20 _token, uint256 _amount) public onlyOwner {\n        _token.transfer(msg.sender, _amount);\n    }\n\n    /*\n    *   On chain storage.\n    */\n    function uploadImages(bytes calldata s) external onlyOwner {}\n    function uploadAttributes(bytes calldata s) external onlyOwner {}\n\n    /*\n    *   Overrides\n    */\n    function _baseURI() internal view override returns (string memory) {\n        return baseUri;\n    }\n\n    receive () external payable virtual {}\n}\n",
  "sourcePath": "/Users/Shared/Code/experimental/cryptosuits/cryptosuits-app/contracts/CryptoSuits.sol",
  "compiler": {
    "name": "solc",
    "version": "0.8.4+commit.c7e474f2.Emscripten.clang"
  },
  "schemaVersion": "3.4.1",
  "updatedAt": "2021-08-17T22:43:20.476Z",
  "networkType": "ethereum",
  "devdoc": {
    "kind": "dev",
    "methods": {
      "approve(address,uint256)": {
        "details": "See {IERC721-approve}."
      },
      "balanceOf(address)": {
        "details": "See {IERC721-balanceOf}."
      },
      "burn(uint256)": {
        "details": "Burns `tokenId`. See {ERC721-_burn}. Requirements: - The caller must own `tokenId` or be an approved operator."
      },
      "getApproved(uint256)": {
        "details": "See {IERC721-getApproved}."
      },
      "isApprovedForAll(address,address)": {
        "details": "See {IERC721-isApprovedForAll}."
      },
      "name()": {
        "details": "See {IERC721Metadata-name}."
      },
      "owner()": {
        "details": "Returns the address of the current owner."
      },
      "ownerOf(uint256)": {
        "details": "See {IERC721-ownerOf}."
      },
      "renounceOwnership()": {
        "details": "Leaves the contract without owner. It will not be possible to call `onlyOwner` functions anymore. Can only be called by the current owner. NOTE: Renouncing ownership will leave the contract without an owner, thereby removing any functionality that is only available to the owner."
      },
      "safeTransferFrom(address,address,uint256)": {
        "details": "See {IERC721-safeTransferFrom}."
      },
      "safeTransferFrom(address,address,uint256,bytes)": {
        "details": "See {IERC721-safeTransferFrom}."
      },
      "setApprovalForAll(address,bool)": {
        "details": "See {IERC721-setApprovalForAll}."
      },
      "supportsInterface(bytes4)": {
        "details": "See {IERC165-supportsInterface}."
      },
      "symbol()": {
        "details": "See {IERC721Metadata-symbol}."
      },
      "tokenURI(uint256)": {
        "details": "See {IERC721Metadata-tokenURI}."
      },
      "transferFrom(address,address,uint256)": {
        "details": "See {IERC721-transferFrom}."
      },
      "transferOwnership(address)": {
        "details": "Transfers ownership of the contract to a new account (`newOwner`). Can only be called by the current owner."
      }
    },
    "version": 1
  },
  "userdoc": {
    "kind": "user",
    "methods": {
      "getByOwner(address)": {
        "notice": "External function for getting all tokens by a specific owner."
      },
      "mint(uint256)": {
        "notice": "Public functions for minting and enforcing requirements."
      }
    },
    "version": 1
  }
}