{
  "contractName": "CryptoSuits",
  "abi": [
    {
      "inputs": [],
      "stateMutability": "nonpayable",
      "type": "constructor"
    },
    {
      "anonymous": false,
      "inputs": [
        {
          "indexed": true,
          "internalType": "address",
          "name": "owner",
          "type": "address"
        },
        {
          "indexed": true,
          "internalType": "address",
          "name": "approved",
          "type": "address"
        },
        {
          "indexed": true,
          "internalType": "uint256",
          "name": "tokenId",
          "type": "uint256"
        }
      ],
      "name": "Approval",
      "type": "event"
    },
    {
      "anonymous": false,
      "inputs": [
        {
          "indexed": true,
          "internalType": "address",
          "name": "owner",
          "type": "address"
        },
        {
          "indexed": true,
          "internalType": "address",
          "name": "operator",
          "type": "address"
        },
        {
          "indexed": false,
          "internalType": "bool",
          "name": "approved",
          "type": "bool"
        }
      ],
      "name": "ApprovalForAll",
      "type": "event"
    },
    {
      "anonymous": false,
      "inputs": [
        {
          "indexed": false,
          "internalType": "address",
          "name": "minter",
          "type": "address"
        },
        {
          "indexed": false,
          "internalType": "address",
          "name": "receiver",
          "type": "address"
        },
        {
          "indexed": false,
          "internalType": "uint256",
          "name": "tokenId",
          "type": "uint256"
        }
      ],
      "name": "Minted",
      "type": "event"
    },
    {
      "anonymous": false,
      "inputs": [
        {
          "indexed": true,
          "internalType": "address",
          "name": "previousOwner",
          "type": "address"
        },
        {
          "indexed": true,
          "internalType": "address",
          "name": "newOwner",
          "type": "address"
        }
      ],
      "name": "OwnershipTransferred",
      "type": "event"
    },
    {
      "anonymous": false,
      "inputs": [
        {
          "indexed": false,
          "internalType": "bool",
          "name": "saleState",
          "type": "bool"
        }
      ],
      "name": "SaleChanged",
      "type": "event"
    },
    {
      "anonymous": false,
      "inputs": [
        {
          "indexed": true,
          "internalType": "address",
          "name": "from",
          "type": "address"
        },
        {
          "indexed": true,
          "internalType": "address",
          "name": "to",
          "type": "address"
        },
        {
          "indexed": true,
          "internalType": "uint256",
          "name": "tokenId",
          "type": "uint256"
        }
      ],
      "name": "Transfer",
      "type": "event"
    },
    {
      "inputs": [
        {
          "internalType": "address",
          "name": "to",
          "type": "address"
        },
        {
          "internalType": "uint256",
          "name": "tokenId",
          "type": "uint256"
        }
      ],
      "name": "approve",
      "outputs": [],
      "stateMutability": "nonpayable",
      "type": "function"
    },
    {
      "inputs": [
        {
          "internalType": "address",
          "name": "owner",
          "type": "address"
        }
      ],
      "name": "balanceOf",
      "outputs": [
        {
          "internalType": "uint256",
          "name": "",
          "type": "uint256"
        }
      ],
      "stateMutability": "view",
      "type": "function"
    },
    {
      "inputs": [],
      "name": "baseUri",
      "outputs": [
        {
          "internalType": "string",
          "name": "",
          "type": "string"
        }
      ],
      "stateMutability": "view",
      "type": "function"
    },
    {
      "inputs": [
        {
          "internalType": "uint256",
          "name": "tokenId",
          "type": "uint256"
        }
      ],
      "name": "burn",
      "outputs": [],
      "stateMutability": "nonpayable",
      "type": "function"
    },
    {
      "inputs": [
        {
          "internalType": "uint256",
          "name": "tokenId",
          "type": "uint256"
        }
      ],
      "name": "getApproved",
      "outputs": [
        {
          "internalType": "address",
          "name": "",
          "type": "address"
        }
      ],
      "stateMutability": "view",
      "type": "function"
    },
    {
      "inputs": [],
      "name": "imageTx",
      "outputs": [
        {
          "internalType": "string",
          "name": "",
          "type": "string"
        }
      ],
      "stateMutability": "view",
      "type": "function"
    },
    {
      "inputs": [
        {
          "internalType": "address",
          "name": "owner",
          "type": "address"
        },
        {
          "internalType": "address",
          "name": "operator",
          "type": "address"
        }
      ],
      "name": "isApprovedForAll",
      "outputs": [
        {
          "internalType": "bool",
          "name": "",
          "type": "bool"
        }
      ],
      "stateMutability": "view",
      "type": "function"
    },
    {
      "inputs": [],
      "name": "maxPurchase",
      "outputs": [
        {
          "internalType": "uint256",
          "name": "",
          "type": "uint256"
        }
      ],
      "stateMutability": "view",
      "type": "function"
    },
    {
      "inputs": [],
      "name": "maxSupply",
      "outputs": [
        {
          "internalType": "uint256",
          "name": "",
          "type": "uint256"
        }
      ],
      "stateMutability": "view",
      "type": "function"
    },
    {
      "inputs": [],
      "name": "metadataTx",
      "outputs": [
        {
          "internalType": "string",
          "name": "",
          "type": "string"
        }
      ],
      "stateMutability": "view",
      "type": "function"
    },
    {
      "inputs": [],
      "name": "name",
      "outputs": [
        {
          "internalType": "string",
          "name": "",
          "type": "string"
        }
      ],
      "stateMutability": "view",
      "type": "function"
    },
    {
      "inputs": [],
      "name": "owner",
      "outputs": [
        {
          "internalType": "address",
          "name": "",
          "type": "address"
        }
      ],
      "stateMutability": "view",
      "type": "function"
    },
    {
      "inputs": [
        {
          "internalType": "uint256",
          "name": "tokenId",
          "type": "uint256"
        }
      ],
      "name": "ownerOf",
      "outputs": [
        {
          "internalType": "address",
          "name": "",
          "type": "address"
        }
      ],
      "stateMutability": "view",
      "type": "function"
    },
    {
      "inputs": [],
      "name": "price",
      "outputs": [
        {
          "internalType": "uint256",
          "name": "",
          "type": "uint256"
        }
      ],
      "stateMutability": "view",
      "type": "function"
    },
    {
      "inputs": [],
      "name": "renounceOwnership",
      "outputs": [],
      "stateMutability": "nonpayable",
      "type": "function"
    },
    {
      "inputs": [
        {
          "internalType": "address",
          "name": "from",
          "type": "address"
        },
        {
          "internalType": "address",
          "name": "to",
          "type": "address"
        },
        {
          "internalType": "uint256",
          "name": "tokenId",
          "type": "uint256"
        }
      ],
      "name": "safeTransferFrom",
      "outputs": [],
      "stateMutability": "nonpayable",
      "type": "function"
    },
    {
      "inputs": [
        {
          "internalType": "address",
          "name": "from",
          "type": "address"
        },
        {
          "internalType": "address",
          "name": "to",
          "type": "address"
        },
        {
          "internalType": "uint256",
          "name": "tokenId",
          "type": "uint256"
        },
        {
          "internalType": "bytes",
          "name": "_data",
          "type": "bytes"
        }
      ],
      "name": "safeTransferFrom",
      "outputs": [],
      "stateMutability": "nonpayable",
      "type": "function"
    },
    {
      "inputs": [
        {
          "internalType": "address",
          "name": "operator",
          "type": "address"
        },
        {
          "internalType": "bool",
          "name": "approved",
          "type": "bool"
        }
      ],
      "name": "setApprovalForAll",
      "outputs": [],
      "stateMutability": "nonpayable",
      "type": "function"
    },
    {
      "inputs": [],
      "name": "startSale",
      "outputs": [
        {
          "internalType": "bool",
          "name": "",
          "type": "bool"
        }
      ],
      "stateMutability": "view",
      "type": "function"
    },
    {
      "inputs": [
        {
          "internalType": "bytes4",
          "name": "interfaceId",
          "type": "bytes4"
        }
      ],
      "name": "supportsInterface",
      "outputs": [
        {
          "internalType": "bool",
          "name": "",
          "type": "bool"
        }
      ],
      "stateMutability": "view",
      "type": "function"
    },
    {
      "inputs": [],
      "name": "symbol",
      "outputs": [
        {
          "internalType": "string",
          "name": "",
          "type": "string"
        }
      ],
      "stateMutability": "view",
      "type": "function"
    },
    {
      "inputs": [
        {
          "internalType": "uint256",
          "name": "tokenId",
          "type": "uint256"
        }
      ],
      "name": "tokenURI",
      "outputs": [
        {
          "internalType": "string",
          "name": "",
          "type": "string"
        }
      ],
      "stateMutability": "view",
      "type": "function"
    },
    {
      "inputs": [
        {
          "internalType": "address",
          "name": "from",
          "type": "address"
        },
        {
          "internalType": "address",
          "name": "to",
          "type": "address"
        },
        {
          "internalType": "uint256",
          "name": "tokenId",
          "type": "uint256"
        }
      ],
      "name": "transferFrom",
      "outputs": [],
      "stateMutability": "nonpayable",
      "type": "function"
    },
    {
      "inputs": [
        {
          "internalType": "address",
          "name": "newOwner",
          "type": "address"
        }
      ],
      "name": "transferOwnership",
      "outputs": [],
      "stateMutability": "nonpayable",
      "type": "function"
    },
    {
      "stateMutability": "payable",
      "type": "receive"
    },
    {
      "inputs": [],
      "name": "getCurrentId",
      "outputs": [
        {
          "internalType": "uint256",
          "name": "",
          "type": "uint256"
        }
      ],
      "stateMutability": "view",
      "type": "function"
    },
    {
      "inputs": [
        {
          "internalType": "uint256",
          "name": "tokenId",
          "type": "uint256"
        }
      ],
      "name": "exists",
      "outputs": [
        {
          "internalType": "bool",
          "name": "",
          "type": "bool"
        }
      ],
      "stateMutability": "view",
      "type": "function"
    },
    {
      "inputs": [],
      "name": "saleStarted",
      "outputs": [
        {
          "internalType": "bool",
          "name": "",
          "type": "bool"
        }
      ],
      "stateMutability": "view",
      "type": "function"
    },
    {
      "inputs": [
        {
          "internalType": "uint256",
          "name": "numberOfTokens",
          "type": "uint256"
        },
        {
          "internalType": "address",
          "name": "owner",
          "type": "address"
        }
      ],
      "name": "mint",
      "outputs": [],
      "stateMutability": "payable",
      "type": "function"
    },
    {
      "inputs": [
        {
          "internalType": "uint256",
          "name": "numberOfTokens",
          "type": "uint256"
        }
      ],
      "name": "mint",
      "outputs": [],
      "stateMutability": "payable",
      "type": "function"
    },
    {
      "inputs": [
        {
          "internalType": "address",
          "name": "_owner",
          "type": "address"
        }
      ],
      "name": "getByOwner",
      "outputs": [
        {
          "internalType": "uint256[]",
          "name": "",
          "type": "uint256[]"
        }
      ],
      "stateMutability": "view",
      "type": "function"
    },
    {
      "inputs": [
        {
          "internalType": "string",
          "name": "_baseUri",
          "type": "string"
        }
      ],
      "name": "setBaseUri",
      "outputs": [],
      "stateMutability": "nonpayable",
      "type": "function"
    },
    {
      "inputs": [
        {
          "internalType": "bool",
          "name": "_startSale",
          "type": "bool"
        }
      ],
      "name": "setSaleStart",
      "outputs": [],
      "stateMutability": "nonpayable",
      "type": "function"
    },
    {
      "inputs": [
        {
          "internalType": "uint256",
          "name": "_price",
          "type": "uint256"
        }
      ],
      "name": "setPrice",
      "outputs": [],
      "stateMutability": "nonpayable",
      "type": "function"
    },
    {
      "inputs": [
        {
          "internalType": "string",
          "name": "_imageTx",
          "type": "string"
        },
        {
          "internalType": "string",
          "name": "_metadataTx",
          "type": "string"
        }
      ],
      "name": "setProvenance",
      "outputs": [],
      "stateMutability": "nonpayable",
      "type": "function"
    },
    {
      "inputs": [],
      "name": "withdraw",
      "outputs": [],
      "stateMutability": "payable",
      "type": "function"
    },
    {
      "inputs": [
        {
          "internalType": "contract IERC20",
          "name": "_token",
          "type": "address"
        },
        {
          "internalType": "uint256",
          "name": "_amount",
          "type": "uint256"
        }
      ],
      "name": "forwardERC20s",
      "outputs": [],
      "stateMutability": "nonpayable",
      "type": "function"
    },
    {
      "inputs": [
        {
          "internalType": "bytes",
          "name": "s",
          "type": "bytes"
        }
      ],
      "name": "uploadImages",
      "outputs": [],
      "stateMutability": "nonpayable",
      "type": "function"
    },
    {
      "inputs": [
        {
          "internalType": "bytes",
          "name": "s",
          "type": "bytes"
        }
      ],
      "name": "uploadAttributes",
      "outputs": [],
      "stateMutability": "nonpayable",
      "type": "function"
    }
  ],
  "bytecode": "0x608060405260405180602001604052806000815250600890805190602001906200002b92919062000201565b5060405180602001604052806000815250600990805190602001906200005392919062000201565b5066470de4df820000600c553480156200006c57600080fd5b506040518060400160405280600a81526020017f43727970746f53756974000000000000000000000000000000000000000000008152506040518060400160405280600a81526020017f43525950544f53554954000000000000000000000000000000000000000000008152508160009080519060200190620000f192919062000201565b5080600190805190602001906200010a92919062000201565b5050506200012d620001216200013360201b60201c565b6200013b60201b60201c565b62000316565b600033905090565b6000600660009054906101000a900473ffffffffffffffffffffffffffffffffffffffff16905081600660006101000a81548173ffffffffffffffffffffffffffffffffffffffff021916908373ffffffffffffffffffffffffffffffffffffffff1602179055508173ffffffffffffffffffffffffffffffffffffffff168173ffffffffffffffffffffffffffffffffffffffff167f8be0079c531659141344cd1fd0a4f28419497f9722a3daafe3b4186f6b6457e060405160405180910390a35050565b8280546200020f90620002b1565b90600052602060002090601f0160209004810192826200023357600085556200027f565b82601f106200024e57805160ff19168380011785556200027f565b828001600101855582156200027f579182015b828111156200027e57825182559160200191906001019062000261565b5b5090506200028e919062000292565b5090565b5b80821115620002ad57600081600090555060010162000293565b5090565b60006002820490506001821680620002ca57607f821691505b60208210811415620002e157620002e0620002e7565b5b50919050565b7f4e487b7100000000000000000000000000000000000000000000000000000000600052602260045260246000fd5b6145d080620003266000396000f3fe6080604052600436106102295760003560e01c806391b7f5ed11610123578063a22cb465116100ab578063c87b56dd1161006f578063c87b56dd146107bf578063d5abeb01146107fc578063e985e9c514610827578063f2fde38b14610864578063f7c190291461088d57610230565b8063a22cb465146106ee578063a71ffed914610717578063b61fca1614610742578063b66a0e5d1461076b578063b88d4fde1461079657610230565b8063977b055b116100f2578063977b055b146106285780639abc832014610653578063a035b1fe1461067e578063a0712d68146106a9578063a0bcfc7f146106c557610230565b806391b7f5ed1461058f57806394bf804d146105b857806395d89b41146105d45780639727151a146105ff57610230565b806342842e0e116101b15780636c143862116101755780636c143862146104bc5780636c911918146104e757806370a0823114610510578063715018a61461054d5780638da5cb5b1461056457610230565b806342842e0e146103c557806342966c68146103ee5780634f558e79146104175780635c474f9e146104545780636352211e1461047f57610230565b806312e2cfca116101f857806312e2cfca1461030357806323b872dd1461032c578063379c51311461035557806338c410b5146103925780633ccfd60b146103bb57610230565b806301ffc9a71461023557806306fdde0314610272578063081812fc1461029d578063095ea7b3146102da57610230565b3661023057005b600080fd5b34801561024157600080fd5b5061025c60048036038101906102579190613134565b6108b8565b604051610269919061385a565b60405180910390f35b34801561027e57600080fd5b5061028761099a565b6040516102949190613875565b60405180910390f35b3480156102a957600080fd5b506102c460048036038101906102bf91906132b4565b610a2c565b6040516102d19190613771565b60405180910390f35b3480156102e657600080fd5b5061030160048036038101906102fc91906130a6565b610ab1565b005b34801561030f57600080fd5b5061032a60048036038101906103259190613186565b610bc9565b005b34801561033857600080fd5b50610353600480360381019061034e9190612fa0565b610c49565b005b34801561036157600080fd5b5061037c60048036038101906103779190612f3b565b610ca9565b6040516103899190613838565b60405180910390f35b34801561039e57600080fd5b506103b960048036038101906103b49190613248565b610e8c565b005b6103c3610f3a565b005b3480156103d157600080fd5b506103ec60048036038101906103e79190612fa0565b6110bf565b005b3480156103fa57600080fd5b50610415600480360381019061041091906132b4565b6110df565b005b34801561042357600080fd5b5061043e600480360381019061043991906132b4565b61113b565b60405161044b919061385a565b60405180910390f35b34801561046057600080fd5b5061046961114d565b604051610476919061385a565b60405180910390f35b34801561048b57600080fd5b506104a660048036038101906104a191906132b4565b611164565b6040516104b39190613771565b60405180910390f35b3480156104c857600080fd5b506104d1611216565b6040516104de9190613b37565b60405180910390f35b3480156104f357600080fd5b5061050e600480360381019061050991906130e2565b611227565b005b34801561051c57600080fd5b5061053760048036038101906105329190612f3b565b611305565b6040516105449190613b37565b60405180910390f35b34801561055957600080fd5b506105626113bd565b005b34801561057057600080fd5b50610579611445565b6040516105869190613771565b60405180910390f35b34801561059b57600080fd5b506105b660048036038101906105b191906132b4565b61146f565b005b6105d260048036038101906105cd91906132dd565b6114f5565b005b3480156105e057600080fd5b506105e96116bb565b6040516105f69190613875565b60405180910390f35b34801561060b57600080fd5b50610626600480360381019061062191906131cb565b61174d565b005b34801561063457600080fd5b5061063d61185b565b60405161064a9190613b37565b60405180910390f35b34801561065f57600080fd5b50610668611860565b6040516106759190613875565b60405180910390f35b34801561068a57600080fd5b506106936118ee565b6040516106a09190613b37565b60405180910390f35b6106c360048036038101906106be91906132b4565b6118f4565b005b3480156106d157600080fd5b506106ec60048036038101906106e79190613207565b611901565b005b3480156106fa57600080fd5b506107156004803603810190610710919061306a565b611997565b005b34801561072357600080fd5b5061072c611b18565b6040516107399190613875565b60405180910390f35b34801561074e57600080fd5b5061076960048036038101906107649190613186565b611ba6565b005b34801561077757600080fd5b50610780611c26565b60405161078d919061385a565b60405180910390f35b3480156107a257600080fd5b506107bd60048036038101906107b89190612fef565b611c39565b005b3480156107cb57600080fd5b506107e660048036038101906107e191906132b4565b611c9b565b6040516107f39190613875565b60405180910390f35b34801561080857600080fd5b50610811611d42565b60405161081e9190613b37565b60405180910390f35b34801561083357600080fd5b5061084e60048036038101906108499190612f64565b611d48565b60405161085b919061385a565b60405180910390f35b34801561087057600080fd5b5061088b60048036038101906108869190612f3b565b611ddc565b005b34801561089957600080fd5b506108a2611ed4565b6040516108af9190613875565b60405180910390f35b60007f80ac58cd000000000000000000000000000000000000000000000000000000007bffffffffffffffffffffffffffffffffffffffffffffffffffffffff1916827bffffffffffffffffffffffffffffffffffffffffffffffffffffffff1916148061098357507f5b5e139f000000000000000000000000000000000000000000000000000000007bffffffffffffffffffffffffffffffffffffffffffffffffffffffff1916827bffffffffffffffffffffffffffffffffffffffffffffffffffffffff1916145b80610993575061099282611f62565b5b9050919050565b6060600080546109a990613e32565b80601f01602080910402602001604051908101604052809291908181526020018280546109d590613e32565b8015610a225780601f106109f757610100808354040283529160200191610a22565b820191906000526020600020905b815481529060010190602001808311610a0557829003601f168201915b5050505050905090565b6000610a3782611fcc565b610a76576040517f08c379a0000000000000000000000000000000000000000000000000000000008152600401610a6d90613a17565b60405180910390fd5b6004600083815260200190815260200160002060009054906101000a900473ffffffffffffffffffffffffffffffffffffffff169050919050565b6000610abc82611164565b90508073ffffffffffffffffffffffffffffffffffffffff168373ffffffffffffffffffffffffffffffffffffffff161415610b2d576040517f08c379a0000000000000000000000000000000000000000000000000000000008152600401610b2490613a97565b60405180910390fd5b8073ffffffffffffffffffffffffffffffffffffffff16610b4c612038565b73ffffffffffffffffffffffffffffffffffffffff161480610b7b5750610b7a81610b75612038565b611d48565b5b610bba576040517f08c379a0000000000000000000000000000000000000000000000000000000008152600401610bb190613977565b60405180910390fd5b610bc48383612040565b505050565b610bd1612038565b73ffffffffffffffffffffffffffffffffffffffff16610bef611445565b73ffffffffffffffffffffffffffffffffffffffff1614610c45576040517f08c379a0000000000000000000000000000000000000000000000000000000008152600401610c3c90613a37565b60405180910390fd5b5050565b610c5a610c54612038565b826120f9565b610c99576040517f08c379a0000000000000000000000000000000000000000000000000000000008152600401610c9090613ab7565b60405180910390fd5b610ca48383836121d7565b505050565b60606000610cb683611305565b90506000811415610d3957600067ffffffffffffffff811115610d02577f4e487b7100000000000000000000000000000000000000000000000000000000600052604160045260246000fd5b604051908082528060200260200182016040528015610d305781602001602082028036833780820191505090505b50915050610e87565b60008167ffffffffffffffff811115610d7b577f4e487b7100000000000000000000000000000000000000000000000000000000600052604160045260246000fd5b604051908082528060200260200182016040528015610da95781602001602082028036833780820191505090505b5090506000610db86007612433565b9050600080600190505b828111610e7e57610dd281611fcc565b8015610e1157508673ffffffffffffffffffffffffffffffffffffffff16610df982611164565b73ffffffffffffffffffffffffffffffffffffffff16145b15610e6b5780848381518110610e50577f4e487b7100000000000000000000000000000000000000000000000000000000600052603260045260246000fd5b6020026020010181815250508180610e6790613e95565b9250505b8080610e7690613e95565b915050610dc2565b50829450505050505b919050565b610e94612038565b73ffffffffffffffffffffffffffffffffffffffff16610eb2611445565b73ffffffffffffffffffffffffffffffffffffffff1614610f08576040517f08c379a0000000000000000000000000000000000000000000000000000000008152600401610eff90613a37565b60405180910390fd5b8160089080519060200190610f1e929190612ceb565b508060099080519060200190610f35929190612ceb565b505050565b610f42612038565b73ffffffffffffffffffffffffffffffffffffffff16610f60611445565b73ffffffffffffffffffffffffffffffffffffffff1614610fb6576040517f08c379a0000000000000000000000000000000000000000000000000000000008152600401610fad90613a37565b60405180910390fd5b6000600347610fc59190613cab565b905072796e910bd0228ddf4cd79e3f353871a61c351c73ffffffffffffffffffffffffffffffffffffffff166108fc829081150290604051600060405180830381858888f1935050505061101857600080fd5b737fc55376d5a29e0ee86c18c81bb2fc8f9f490e5073ffffffffffffffffffffffffffffffffffffffff166108fc829081150290604051600060405180830381858888f1935050505061106a57600080fd5b73b58fb5372e9aa0c86c3b281179c05af3bb7a181b73ffffffffffffffffffffffffffffffffffffffff166108fc829081150290604051600060405180830381858888f193505050506110bc57600080fd5b50565b6110da83838360405180602001604052806000815250611c39565b505050565b6110f06110ea612038565b826120f9565b61112f576040517f08c379a000000000000000000000000000000000000000000000000000000000815260040161112690613af7565b60405180910390fd5b61113881612441565b50565b600061114682611fcc565b9050919050565b6000600b60009054906101000a900460ff16905090565b6000806002600084815260200190815260200160002060009054906101000a900473ffffffffffffffffffffffffffffffffffffffff169050600073ffffffffffffffffffffffffffffffffffffffff168173ffffffffffffffffffffffffffffffffffffffff16141561120d576040517f08c379a0000000000000000000000000000000000000000000000000000000008152600401611204906139b7565b60405180910390fd5b80915050919050565b60006112226007612433565b905090565b61122f612038565b73ffffffffffffffffffffffffffffffffffffffff1661124d611445565b73ffffffffffffffffffffffffffffffffffffffff16146112a3576040517f08c379a000000000000000000000000000000000000000000000000000000000815260040161129a90613a37565b60405180910390fd5b80600b60006101000a81548160ff0219169083151502179055507e63bb5c3db3ada0146ee637251229e55154a15a6619c01a2ed1d8f3898777b1600b60009054906101000a900460ff166040516112fa919061385a565b60405180910390a150565b60008073ffffffffffffffffffffffffffffffffffffffff168273ffffffffffffffffffffffffffffffffffffffff161415611376576040517f08c379a000000000000000000000000000000000000000000000000000000000815260040161136d90613997565b60405180910390fd5b600360008373ffffffffffffffffffffffffffffffffffffffff1673ffffffffffffffffffffffffffffffffffffffff168152602001908152602001600020549050919050565b6113c5612038565b73ffffffffffffffffffffffffffffffffffffffff166113e3611445565b73ffffffffffffffffffffffffffffffffffffffff1614611439576040517f08c379a000000000000000000000000000000000000000000000000000000000815260040161143090613a37565b60405180910390fd5b6114436000612552565b565b6000600660009054906101000a900473ffffffffffffffffffffffffffffffffffffffff16905090565b611477612038565b73ffffffffffffffffffffffffffffffffffffffff16611495611445565b73ffffffffffffffffffffffffffffffffffffffff16146114eb576040517f08c379a00000000000000000000000000000000000000000000000000000000081526004016114e290613a37565b60405180910390fd5b80600c8190555050565b6114fd61114d565b61153c576040517f08c379a000000000000000000000000000000000000000000000000000000000815260040161153390613ad7565b60405180910390fd5b6014821115611580576040517f08c379a000000000000000000000000000000000000000000000000000000000815260040161157790613897565b60405180910390fd5b61271061159f836115916007612433565b61261890919063ffffffff16565b11156115e0576040517f08c379a00000000000000000000000000000000000000000000000000000000081526004016115d790613b17565b60405180910390fd5b346115f683600c5461262e90919063ffffffff16565b1115611637576040517f08c379a000000000000000000000000000000000000000000000000000000000815260040161162e906139d7565b60405180910390fd5b60005b828110156116b65761164c6007612644565b61165f8261165a6007612433565b61265a565b7f9d228d69b5fdb8d273a2336f8fb8612d039631024ea9bf09c424a9503aa078f0338361168c6007612433565b60405161169b9392919061378c565b60405180910390a180806116ae90613e95565b91505061163a565b505050565b6060600180546116ca90613e32565b80601f01602080910402602001604051908101604052809291908181526020018280546116f690613e32565b80156117435780601f1061171857610100808354040283529160200191611743565b820191906000526020600020905b81548152906001019060200180831161172657829003601f168201915b5050505050905090565b611755612038565b73ffffffffffffffffffffffffffffffffffffffff16611773611445565b73ffffffffffffffffffffffffffffffffffffffff16146117c9576040517f08c379a00000000000000000000000000000000000000000000000000000000081526004016117c090613a37565b60405180910390fd5b8173ffffffffffffffffffffffffffffffffffffffff1663a9059cbb33836040518363ffffffff1660e01b815260040161180492919061380f565b602060405180830381600087803b15801561181e57600080fd5b505af1158015611832573d6000803e3d6000fd5b505050506040513d601f19601f82011682018060405250810190611856919061310b565b505050565b601481565b600a805461186d90613e32565b80601f016020809104026020016040519081016040528092919081815260200182805461189990613e32565b80156118e65780601f106118bb576101008083540402835291602001916118e6565b820191906000526020600020905b8154815290600101906020018083116118c957829003601f168201915b505050505081565b600c5481565b6118fe81336114f5565b50565b611909612038565b73ffffffffffffffffffffffffffffffffffffffff16611927611445565b73ffffffffffffffffffffffffffffffffffffffff161461197d576040517f08c379a000000000000000000000000000000000000000000000000000000000815260040161197490613a37565b60405180910390fd5b80600a9080519060200190611993929190612ceb565b5050565b61199f612038565b73ffffffffffffffffffffffffffffffffffffffff168273ffffffffffffffffffffffffffffffffffffffff161415611a0d576040517f08c379a0000000000000000000000000000000000000000000000000000000008152600401611a0490613937565b60405180910390fd5b8060056000611a1a612038565b73ffffffffffffffffffffffffffffffffffffffff1673ffffffffffffffffffffffffffffffffffffffff16815260200190815260200160002060008473ffffffffffffffffffffffffffffffffffffffff1673ffffffffffffffffffffffffffffffffffffffff16815260200190815260200160002060006101000a81548160ff0219169083151502179055508173ffffffffffffffffffffffffffffffffffffffff16611ac7612038565b73ffffffffffffffffffffffffffffffffffffffff167f17307eab39ab6107e8899845ad3d59bd9653f200f220920489ca2b5937696c3183604051611b0c919061385a565b60405180910390a35050565b60088054611b2590613e32565b80601f0160208091040260200160405190810160405280929190818152602001828054611b5190613e32565b8015611b9e5780601f10611b7357610100808354040283529160200191611b9e565b820191906000526020600020905b815481529060010190602001808311611b8157829003601f168201915b505050505081565b611bae612038565b73ffffffffffffffffffffffffffffffffffffffff16611bcc611445565b73ffffffffffffffffffffffffffffffffffffffff1614611c22576040517f08c379a0000000000000000000000000000000000000000000000000000000008152600401611c1990613a37565b60405180910390fd5b5050565b600b60009054906101000a900460ff1681565b611c4a611c44612038565b836120f9565b611c89576040517f08c379a0000000000000000000000000000000000000000000000000000000008152600401611c8090613ab7565b60405180910390fd5b611c9584848484612678565b50505050565b6060611ca682611fcc565b611ce5576040517f08c379a0000000000000000000000000000000000000000000000000000000008152600401611cdc90613a77565b60405180910390fd5b6000611cef6126d4565b90506000815111611d0f5760405180602001604052806000815250611d3a565b80611d1984612766565b604051602001611d2a92919061374d565b6040516020818303038152906040525b915050919050565b61271081565b6000600560008473ffffffffffffffffffffffffffffffffffffffff1673ffffffffffffffffffffffffffffffffffffffff16815260200190815260200160002060008373ffffffffffffffffffffffffffffffffffffffff1673ffffffffffffffffffffffffffffffffffffffff16815260200190815260200160002060009054906101000a900460ff16905092915050565b611de4612038565b73ffffffffffffffffffffffffffffffffffffffff16611e02611445565b73ffffffffffffffffffffffffffffffffffffffff1614611e58576040517f08c379a0000000000000000000000000000000000000000000000000000000008152600401611e4f90613a37565b60405180910390fd5b600073ffffffffffffffffffffffffffffffffffffffff168173ffffffffffffffffffffffffffffffffffffffff161415611ec8576040517f08c379a0000000000000000000000000000000000000000000000000000000008152600401611ebf906138d7565b60405180910390fd5b611ed181612552565b50565b60098054611ee190613e32565b80601f0160208091040260200160405190810160405280929190818152602001828054611f0d90613e32565b8015611f5a5780601f10611f2f57610100808354040283529160200191611f5a565b820191906000526020600020905b815481529060010190602001808311611f3d57829003601f168201915b505050505081565b60007f01ffc9a7000000000000000000000000000000000000000000000000000000007bffffffffffffffffffffffffffffffffffffffffffffffffffffffff1916827bffffffffffffffffffffffffffffffffffffffffffffffffffffffff1916149050919050565b60008073ffffffffffffffffffffffffffffffffffffffff166002600084815260200190815260200160002060009054906101000a900473ffffffffffffffffffffffffffffffffffffffff1673ffffffffffffffffffffffffffffffffffffffff1614159050919050565b600033905090565b816004600083815260200190815260200160002060006101000a81548173ffffffffffffffffffffffffffffffffffffffff021916908373ffffffffffffffffffffffffffffffffffffffff160217905550808273ffffffffffffffffffffffffffffffffffffffff166120b383611164565b73ffffffffffffffffffffffffffffffffffffffff167f8c5be1e5ebec7d5bd14f71427d1e84f3dd0314c0f7b2291e5b200ac8c7c3b92560405160405180910390a45050565b600061210482611fcc565b612143576040517f08c379a000000000000000000000000000000000000000000000000000000000815260040161213a90613957565b60405180910390fd5b600061214e83611164565b90508073ffffffffffffffffffffffffffffffffffffffff168473ffffffffffffffffffffffffffffffffffffffff1614806121bd57508373ffffffffffffffffffffffffffffffffffffffff166121a584610a2c565b73ffffffffffffffffffffffffffffffffffffffff16145b806121ce57506121cd8185611d48565b5b91505092915050565b8273ffffffffffffffffffffffffffffffffffffffff166121f782611164565b73ffffffffffffffffffffffffffffffffffffffff161461224d576040517f08c379a000000000000000000000000000000000000000000000000000000000815260040161224490613a57565b60405180910390fd5b600073ffffffffffffffffffffffffffffffffffffffff168273ffffffffffffffffffffffffffffffffffffffff1614156122bd576040517f08c379a00000000000000000000000000000000000000000000000000000000081526004016122b490613917565b60405180910390fd5b6122c8838383612913565b6122d3600082612040565b6001600360008573ffffffffffffffffffffffffffffffffffffffff1673ffffffffffffffffffffffffffffffffffffffff16815260200190815260200160002060008282546123239190613d36565b925050819055506001600360008473ffffffffffffffffffffffffffffffffffffffff1673ffffffffffffffffffffffffffffffffffffffff168152602001908152602001600020600082825461237a9190613c55565b92505081905550816002600083815260200190815260200160002060006101000a81548173ffffffffffffffffffffffffffffffffffffffff021916908373ffffffffffffffffffffffffffffffffffffffff160217905550808273ffffffffffffffffffffffffffffffffffffffff168473ffffffffffffffffffffffffffffffffffffffff167fddf252ad1be2c89b69c2b068fc378daa952ba7f163c4a11628f55a4df523b3ef60405160405180910390a4505050565b600081600001549050919050565b600061244c82611164565b905061245a81600084612913565b612465600083612040565b6001600360008373ffffffffffffffffffffffffffffffffffffffff1673ffffffffffffffffffffffffffffffffffffffff16815260200190815260200160002060008282546124b59190613d36565b925050819055506002600083815260200190815260200160002060006101000a81549073ffffffffffffffffffffffffffffffffffffffff021916905581600073ffffffffffffffffffffffffffffffffffffffff168273ffffffffffffffffffffffffffffffffffffffff167fddf252ad1be2c89b69c2b068fc378daa952ba7f163c4a11628f55a4df523b3ef60405160405180910390a45050565b6000600660009054906101000a900473ffffffffffffffffffffffffffffffffffffffff16905081600660006101000a81548173ffffffffffffffffffffffffffffffffffffffff021916908373ffffffffffffffffffffffffffffffffffffffff1602179055508173ffffffffffffffffffffffffffffffffffffffff168173ffffffffffffffffffffffffffffffffffffffff167f8be0079c531659141344cd1fd0a4f28419497f9722a3daafe3b4186f6b6457e060405160405180910390a35050565b600081836126269190613c55565b905092915050565b6000818361263c9190613cdc565b905092915050565b6001816000016000828254019250508190555050565b612674828260405180602001604052806000815250612918565b5050565b6126838484846121d7565b61268f84848484612973565b6126ce576040517f08c379a00000000000000000000000000000000000000000000000000000000081526004016126c5906138b7565b60405180910390fd5b50505050565b6060600a80546126e390613e32565b80601f016020809104026020016040519081016040528092919081815260200182805461270f90613e32565b801561275c5780601f106127315761010080835404028352916020019161275c565b820191906000526020600020905b81548152906001019060200180831161273f57829003601f168201915b5050505050905090565b606060008214156127ae576040518060400160405280600181526020017f3000000000000000000000000000000000000000000000000000000000000000815250905061290e565b600082905060005b600082146127e05780806127c990613e95565b915050600a826127d99190613cab565b91506127b6565b60008167ffffffffffffffff811115612822577f4e487b7100000000000000000000000000000000000000000000000000000000600052604160045260246000fd5b6040519080825280601f01601f1916602001820160405280156128545781602001600182028036833780820191505090505b5090505b600085146129075760018261286d9190613d36565b9150600a8561287c9190613ede565b60306128889190613c55565b60f81b8183815181106128c4577f4e487b7100000000000000000000000000000000000000000000000000000000600052603260045260246000fd5b60200101907effffffffffffffffffffffffffffffffffffffffffffffffffffffffffffff1916908160001a905350600a856129009190613cab565b9450612858565b8093505050505b919050565b505050565b6129228383612b0a565b61292f6000848484612973565b61296e576040517f08c379a0000000000000000000000000000000000000000000000000000000008152600401612965906138b7565b60405180910390fd5b505050565b60006129948473ffffffffffffffffffffffffffffffffffffffff16612cd8565b15612afd578373ffffffffffffffffffffffffffffffffffffffff1663150b7a026129bd612038565b8786866040518563ffffffff1660e01b81526004016129df94939291906137c3565b602060405180830381600087803b1580156129f957600080fd5b505af1925050508015612a2a57506040513d601f19601f82011682018060405250810190612a27919061315d565b60015b612aad573d8060008114612a5a576040519150601f19603f3d011682016040523d82523d6000602084013e612a5f565b606091505b50600081511415612aa5576040517f08c379a0000000000000000000000000000000000000000000000000000000008152600401612a9c906138b7565b60405180910390fd5b805181602001fd5b63150b7a0260e01b7bffffffffffffffffffffffffffffffffffffffffffffffffffffffff1916817bffffffffffffffffffffffffffffffffffffffffffffffffffffffff191614915050612b02565b600190505b949350505050565b600073ffffffffffffffffffffffffffffffffffffffff168273ffffffffffffffffffffffffffffffffffffffff161415612b7a576040517f08c379a0000000000000000000000000000000000000000000000000000000008152600401612b71906139f7565b60405180910390fd5b612b8381611fcc565b15612bc3576040517f08c379a0000000000000000000000000000000000000000000000000000000008152600401612bba906138f7565b60405180910390fd5b612bcf60008383612913565b6001600360008473ffffffffffffffffffffffffffffffffffffffff1673ffffffffffffffffffffffffffffffffffffffff1681526020019081526020016000206000828254612c1f9190613c55565b92505081905550816002600083815260200190815260200160002060006101000a81548173ffffffffffffffffffffffffffffffffffffffff021916908373ffffffffffffffffffffffffffffffffffffffff160217905550808273ffffffffffffffffffffffffffffffffffffffff16600073ffffffffffffffffffffffffffffffffffffffff167fddf252ad1be2c89b69c2b068fc378daa952ba7f163c4a11628f55a4df523b3ef60405160405180910390a45050565b600080823b905060008111915050919050565b828054612cf790613e32565b90600052602060002090601f016020900481019282612d195760008555612d60565b82601f10612d3257805160ff1916838001178555612d60565b82800160010185558215612d60579182015b82811115612d5f578251825591602001919060010190612d44565b5b509050612d6d9190612d71565b5090565b5b80821115612d8a576000816000905550600101612d72565b5090565b6000612da1612d9c84613b77565b613b52565b905082815260208101848484011115612db957600080fd5b612dc4848285613df0565b509392505050565b6000612ddf612dda84613ba8565b613b52565b905082815260208101848484011115612df757600080fd5b612e02848285613df0565b509392505050565b600081359050612e1981614527565b92915050565b600081359050612e2e8161453e565b92915050565b600081519050612e438161453e565b92915050565b600081359050612e5881614555565b92915050565b600081519050612e6d81614555565b92915050565b60008083601f840112612e8557600080fd5b8235905067ffffffffffffffff811115612e9e57600080fd5b602083019150836001820283011115612eb657600080fd5b9250929050565b600082601f830112612ece57600080fd5b8135612ede848260208601612d8e565b91505092915050565b600081359050612ef68161456c565b92915050565b600082601f830112612f0d57600080fd5b8135612f1d848260208601612dcc565b91505092915050565b600081359050612f3581614583565b92915050565b600060208284031215612f4d57600080fd5b6000612f5b84828501612e0a565b91505092915050565b60008060408385031215612f7757600080fd5b6000612f8585828601612e0a565b9250506020612f9685828601612e0a565b9150509250929050565b600080600060608486031215612fb557600080fd5b6000612fc386828701612e0a565b9350506020612fd486828701612e0a565b9250506040612fe586828701612f26565b9150509250925092565b6000806000806080858703121561300557600080fd5b600061301387828801612e0a565b945050602061302487828801612e0a565b935050604061303587828801612f26565b925050606085013567ffffffffffffffff81111561305257600080fd5b61305e87828801612ebd565b91505092959194509250565b6000806040838503121561307d57600080fd5b600061308b85828601612e0a565b925050602061309c85828601612e1f565b9150509250929050565b600080604083850312156130b957600080fd5b60006130c785828601612e0a565b92505060206130d885828601612f26565b9150509250929050565b6000602082840312156130f457600080fd5b600061310284828501612e1f565b91505092915050565b60006020828403121561311d57600080fd5b600061312b84828501612e34565b91505092915050565b60006020828403121561314657600080fd5b600061315484828501612e49565b91505092915050565b60006020828403121561316f57600080fd5b600061317d84828501612e5e565b91505092915050565b6000806020838503121561319957600080fd5b600083013567ffffffffffffffff8111156131b357600080fd5b6131bf85828601612e73565b92509250509250929050565b600080604083850312156131de57600080fd5b60006131ec85828601612ee7565b92505060206131fd85828601612f26565b9150509250929050565b60006020828403121561321957600080fd5b600082013567ffffffffffffffff81111561323357600080fd5b61323f84828501612efc565b91505092915050565b6000806040838503121561325b57600080fd5b600083013567ffffffffffffffff81111561327557600080fd5b61328185828601612efc565b925050602083013567ffffffffffffffff81111561329e57600080fd5b6132aa85828601612efc565b9150509250929050565b6000602082840312156132c657600080fd5b60006132d484828501612f26565b91505092915050565b600080604083850312156132f057600080fd5b60006132fe85828601612f26565b925050602061330f85828601612e0a565b9150509250929050565b6000613325838361372f565b60208301905092915050565b61333a81613d6a565b82525050565b600061334b82613be9565b6133558185613c17565b935061336083613bd9565b8060005b838110156133915781516133788882613319565b975061338383613c0a565b925050600181019050613364565b5085935050505092915050565b6133a781613d7c565b82525050565b60006133b882613bf4565b6133c28185613c28565b93506133d2818560208601613dff565b6133db81613fcb565b840191505092915050565b60006133f182613bff565b6133fb8185613c39565b935061340b818560208601613dff565b61341481613fcb565b840191505092915050565b600061342a82613bff565b6134348185613c4a565b9350613444818560208601613dff565b80840191505092915050565b600061345d600b83613c39565b915061346882613fdc565b602082019050919050565b6000613480603283613c39565b915061348b82614005565b604082019050919050565b60006134a3602683613c39565b91506134ae82614054565b604082019050919050565b60006134c6601c83613c39565b91506134d1826140a3565b602082019050919050565b60006134e9602483613c39565b91506134f4826140cc565b604082019050919050565b600061350c601983613c39565b91506135178261411b565b602082019050919050565b600061352f602c83613c39565b915061353a82614144565b604082019050919050565b6000613552603883613c39565b915061355d82614193565b604082019050919050565b6000613575602a83613c39565b9150613580826141e2565b604082019050919050565b6000613598602983613c39565b91506135a382614231565b604082019050919050565b60006135bb601183613c39565b91506135c682614280565b602082019050919050565b60006135de602083613c39565b91506135e9826142a9565b602082019050919050565b6000613601602c83613c39565b915061360c826142d2565b604082019050919050565b6000613624602083613c39565b915061362f82614321565b602082019050919050565b6000613647602983613c39565b91506136528261434a565b604082019050919050565b600061366a602f83613c39565b915061367582614399565b604082019050919050565b600061368d602183613c39565b9150613698826143e8565b604082019050919050565b60006136b0603183613c39565b91506136bb82614437565b604082019050919050565b60006136d3601b83613c39565b91506136de82614486565b602082019050919050565b60006136f6603083613c39565b9150613701826144af565b604082019050919050565b6000613719601583613c39565b9150613724826144fe565b602082019050919050565b61373881613de6565b82525050565b61374781613de6565b82525050565b6000613759828561341f565b9150613765828461341f565b91508190509392505050565b60006020820190506137866000830184613331565b92915050565b60006060820190506137a16000830186613331565b6137ae6020830185613331565b6137bb604083018461373e565b949350505050565b60006080820190506137d86000830187613331565b6137e56020830186613331565b6137f2604083018561373e565b818103606083015261380481846133ad565b905095945050505050565b60006040820190506138246000830185613331565b613831602083018461373e565b9392505050565b600060208201905081810360008301526138528184613340565b905092915050565b600060208201905061386f600083018461339e565b92915050565b6000602082019050818103600083015261388f81846133e6565b905092915050565b600060208201905081810360008301526138b081613450565b9050919050565b600060208201905081810360008301526138d081613473565b9050919050565b600060208201905081810360008301526138f081613496565b9050919050565b60006020820190508181036000830152613910816134b9565b9050919050565b60006020820190508181036000830152613930816134dc565b9050919050565b60006020820190508181036000830152613950816134ff565b9050919050565b6000602082019050818103600083015261397081613522565b9050919050565b6000602082019050818103600083015261399081613545565b9050919050565b600060208201905081810360008301526139b081613568565b9050919050565b600060208201905081810360008301526139d08161358b565b9050919050565b600060208201905081810360008301526139f0816135ae565b9050919050565b60006020820190508181036000830152613a10816135d1565b9050919050565b60006020820190508181036000830152613a30816135f4565b9050919050565b60006020820190508181036000830152613a5081613617565b9050919050565b60006020820190508181036000830152613a708161363a565b9050919050565b60006020820190508181036000830152613a908161365d565b9050919050565b60006020820190508181036000830152613ab081613680565b9050919050565b60006020820190508181036000830152613ad0816136a3565b9050919050565b60006020820190508181036000830152613af0816136c6565b9050919050565b60006020820190508181036000830152613b10816136e9565b9050919050565b60006020820190508181036000830152613b308161370c565b9050919050565b6000602082019050613b4c600083018461373e565b92915050565b6000613b5c613b6d565b9050613b688282613e64565b919050565b6000604051905090565b600067ffffffffffffffff821115613b9257613b91613f9c565b5b613b9b82613fcb565b9050602081019050919050565b600067ffffffffffffffff821115613bc357613bc2613f9c565b5b613bcc82613fcb565b9050602081019050919050565b6000819050602082019050919050565b600081519050919050565b600081519050919050565b600081519050919050565b6000602082019050919050565b600082825260208201905092915050565b600082825260208201905092915050565b600082825260208201905092915050565b600081905092915050565b6000613c6082613de6565b9150613c6b83613de6565b9250827fffffffffffffffffffffffffffffffffffffffffffffffffffffffffffffffff03821115613ca057613c9f613f0f565b5b828201905092915050565b6000613cb682613de6565b9150613cc183613de6565b925082613cd157613cd0613f3e565b5b828204905092915050565b6000613ce782613de6565b9150613cf283613de6565b9250817fffffffffffffffffffffffffffffffffffffffffffffffffffffffffffffffff0483118215151615613d2b57613d2a613f0f565b5b828202905092915050565b6000613d4182613de6565b9150613d4c83613de6565b925082821015613d5f57613d5e613f0f565b5b828203905092915050565b6000613d7582613dc6565b9050919050565b60008115159050919050565b60007fffffffff0000000000000000000000000000000000000000000000000000000082169050919050565b6000613dbf82613d6a565b9050919050565b600073ffffffffffffffffffffffffffffffffffffffff82169050919050565b6000819050919050565b82818337600083830152505050565b60005b83811015613e1d578082015181840152602081019050613e02565b83811115613e2c576000848401525b50505050565b60006002820490506001821680613e4a57607f821691505b60208210811415613e5e57613e5d613f6d565b5b50919050565b613e6d82613fcb565b810181811067ffffffffffffffff82111715613e8c57613e8b613f9c565b5b80604052505050565b6000613ea082613de6565b91507fffffffffffffffffffffffffffffffffffffffffffffffffffffffffffffffff821415613ed357613ed2613f0f565b5b600182019050919050565b6000613ee982613de6565b9150613ef483613de6565b925082613f0457613f03613f3e565b5b828206905092915050565b7f4e487b7100000000000000000000000000000000000000000000000000000000600052601160045260246000fd5b7f4e487b7100000000000000000000000000000000000000000000000000000000600052601260045260246000fd5b7f4e487b7100000000000000000000000000000000000000000000000000000000600052602260045260246000fd5b7f4e487b7100000000000000000000000000000000000000000000000000000000600052604160045260246000fd5b6000601f19601f8301169050919050565b7f4d6178696d756d20323021000000000000000000000000000000000000000000600082015250565b7f4552433732313a207472616e7366657220746f206e6f6e20455243373231526560008201527f63656976657220696d706c656d656e7465720000000000000000000000000000602082015250565b7f4f776e61626c653a206e6577206f776e657220697320746865207a65726f206160008201527f6464726573730000000000000000000000000000000000000000000000000000602082015250565b7f4552433732313a20746f6b656e20616c7265616479206d696e74656400000000600082015250565b7f4552433732313a207472616e7366657220746f20746865207a65726f2061646460008201527f7265737300000000000000000000000000000000000000000000000000000000602082015250565b7f4552433732313a20617070726f766520746f2063616c6c657200000000000000600082015250565b7f4552433732313a206f70657261746f7220717565727920666f72206e6f6e657860008201527f697374656e7420746f6b656e0000000000000000000000000000000000000000602082015250565b7f4552433732313a20617070726f76652063616c6c6572206973206e6f74206f7760008201527f6e6572206e6f7220617070726f76656420666f7220616c6c0000000000000000602082015250565b7f4552433732313a2062616c616e636520717565727920666f7220746865207a6560008201527f726f206164647265737300000000000000000000000000000000000000000000602082015250565b7f4552433732313a206f776e657220717565727920666f72206e6f6e657869737460008201527f656e7420746f6b656e0000000000000000000000000000000000000000000000602082015250565b7f446f6e74206675636b2061726f756e642e000000000000000000000000000000600082015250565b7f4552433732313a206d696e7420746f20746865207a65726f2061646472657373600082015250565b7f4552433732313a20617070726f76656420717565727920666f72206e6f6e657860008201527f697374656e7420746f6b656e0000000000000000000000000000000000000000602082015250565b7f4f776e61626c653a2063616c6c6572206973206e6f7420746865206f776e6572600082015250565b7f4552433732313a207472616e73666572206f6620746f6b656e2074686174206960008201527f73206e6f74206f776e0000000000000000000000000000000000000000000000602082015250565b7f4552433732314d657461646174613a2055524920717565727920666f72206e6f60008201527f6e6578697374656e7420746f6b656e0000000000000000000000000000000000602082015250565b7f4552433732313a20617070726f76616c20746f2063757272656e74206f776e6560008201527f7200000000000000000000000000000000000000000000000000000000000000602082015250565b7f4552433732313a207472616e736665722063616c6c6572206973206e6f74206f60008201527f776e6572206e6f7220617070726f766564000000000000000000000000000000602082015250565b7f5761697420666f72207468652073616c6520746f207374617274210000000000600082015250565b7f4552433732314275726e61626c653a2063616c6c6572206973206e6f74206f7760008201527f6e6572206e6f7220617070726f76656400000000000000000000000000000000602082015250565b7f457863656564696e67206d617820737570706c79210000000000000000000000600082015250565b61453081613d6a565b811461453b57600080fd5b50565b61454781613d7c565b811461455257600080fd5b50565b61455e81613d88565b811461456957600080fd5b50565b61457581613db4565b811461458057600080fd5b50565b61458c81613de6565b811461459757600080fd5b5056fea2646970667358221220019024a3f14dc8fdb3114ec8b1f73802aafbd82d5bac01683e20bc55fc76e59b64736f6c63430008040033",
  "immutableReferences": {},
  "source": "//\n// Halloweeners\n// For the spooks.\n//\n// 6,666 Halloween NFTs\n// https://halloweeners.art\n//\n// Twitter: https://twitter.com/mystoners\n//\n// Produced by:     @sircryptos\n// Art by:          @linedetail\n// Code by:         @altcryp\n//\n// SPDX-License-Identifier: MIT\n\npragma solidity ^0.8.4;\n\nimport '@openzeppelin/contracts/token/ERC721/extensions/ERC721Burnable.sol';\nimport '@openzeppelin/contracts/access/Ownable.sol';\nimport \"@openzeppelin/contracts/utils/Counters.sol\";\nimport '@openzeppelin/contracts/token/ERC20/IERC20.sol';\nimport '@openzeppelin/contracts/utils/math/SafeMath.sol';\n\ncontract CryptoSuits is ERC721Burnable, Ownable {\n    using SafeMath for uint256;\n    using Counters for Counters.Counter;\n    Counters.Counter private _tokenIds;\n\n    // On-Chain Storage\n    string public imageTx = '';\n    string public metadataTx = '';\n    string public baseUri;\n\n    // Sales\n    bool public startSale;\n    uint256 public price = 20000000000000000; //0.02 ETH\n    uint public constant maxPurchase = 20;\n    uint public constant maxSupply = 10000;\n\n    // Internals\n    event Minted(address minter, address receiver, uint256 tokenId);\n    event SaleChanged(bool saleState);\n\n    // Constructor\n    constructor() ERC721(\"CryptoSuit\", \"CRYPTOSUIT\") {}\n\n    /*\n    *   Getters.\n    */\n    function getCurrentId() public view returns(uint256) {\n        return _tokenIds.current();\n    }\n\n    function exists(uint256 tokenId) public view returns(bool) {\n        return _exists(tokenId);\n    }\n\n    function saleStarted() public view returns (bool) {\n        return startSale;\n    }\n\n    /**\n    *   Public functions for minting and enforcing requirements.\n    */\n\n    function mint(uint numberOfTokens) public payable {\n        mint(numberOfTokens, msg.sender);\n    }\n\n    function mint(uint numberOfTokens, address owner) public payable {\n        require(saleStarted(), \"Wait for the sale to start!\");\n        require(numberOfTokens <= maxPurchase, \"Maximum 20!\");\n        require(_tokenIds.current().add(numberOfTokens) <= maxSupply, \"Exceeding max supply!\");\n        require(price.mul(numberOfTokens) <= msg.value, \"Dont fuck around.\");\n\n        for(uint i = 0; i < numberOfTokens; i++) {\n            _tokenIds.increment();\n            _safeMint(owner, _tokenIds.current());\n            emit Minted(msg.sender, owner, _tokenIds.current());\n        }\n    }\n\n    /**\n    *   External function for getting all tokens by a specific owner.\n    */\n    function getByOwner(address _owner) view public returns(uint256[] memory) {\n        uint256 tokenCount = balanceOf(_owner);\n        if (tokenCount == 0) {\n            return new uint256[](0);\n        } else {\n            uint256[] memory result = new uint256[](tokenCount);\n            uint256 totalTokens = _tokenIds.current();\n            uint256 resultIndex = 0;\n            for (uint256 t = 1; t <= totalTokens; t++) {\n                if (_exists(t) && ownerOf(t) == _owner) {\n                    result[resultIndex] = t;\n                    resultIndex++;\n                }\n            }\n            return result;\n        }\n    }\n\n    /*\n    *   Owner setters.\n    */\n    function setBaseUri(string memory _baseUri) public onlyOwner {\n        baseUri = _baseUri;\n    }\n\n    function setSaleStart(bool _startSale) public onlyOwner {\n        startSale = _startSale;\n        emit SaleChanged(startSale);\n    }\n\n    function setPrice(uint256 _price) public onlyOwner {\n        price = _price;\n    }\n\n    function setProvenance(string memory _imageTx, string memory _metadataTx) public onlyOwner {\n        imageTx = _imageTx;\n        metadataTx = _metadataTx;\n    }\n\n    /*\n    *   Money management.\n    */\n    function withdraw() public payable onlyOwner {\n        uint256 _each = address(this).balance / 3;\n        require(payable(0x00796e910Bd0228ddF4cd79e3f353871a61C351C).send(_each));   // sara  @altcryp\n        require(payable(0x7fc55376D5A29e0Ee86C18C81bb2fC8F9f490E50).send(_each));   // shaun @sircryptos\n        require(payable(0xB58Fb5372e9Aa0C86c3B281179c05Af3bB7a181b).send(_each));   // mark  @linedetail\n    }\n\n    function forwardERC20s(IERC20 _token, uint256 _amount) public onlyOwner {\n        _token.transfer(msg.sender, _amount);\n    }\n\n    /*\n    *   On chain storage.\n    */\n    function uploadImages(bytes calldata s) external onlyOwner {}\n    function uploadAttributes(bytes calldata s) external onlyOwner {}\n\n    /*\n    *   Overrides\n    */\n    function _baseURI() internal view override returns (string memory) {\n        return baseUri;\n    }\n\n    receive () external payable virtual {}\n}\n",
  "sourcePath": "/Users/Shared/Code/experimental/cryptosuits/cryptosuits-app/contracts/CryptoSuits.sol",
  "compiler": {
    "name": "solc",
    "version": "0.8.4+commit.c7e474f2.Emscripten.clang"
  },
  "schemaVersion": "3.4.1",
  "updatedAt": "2021-08-18T15:13:35.992Z",
  "devdoc": {
    "kind": "dev",
    "methods": {
      "approve(address,uint256)": {
        "details": "See {IERC721-approve}."
      },
      "balanceOf(address)": {
        "details": "See {IERC721-balanceOf}."
      },
      "burn(uint256)": {
        "details": "Burns `tokenId`. See {ERC721-_burn}. Requirements: - The caller must own `tokenId` or be an approved operator."
      },
      "getApproved(uint256)": {
        "details": "See {IERC721-getApproved}."
      },
      "isApprovedForAll(address,address)": {
        "details": "See {IERC721-isApprovedForAll}."
      },
      "name()": {
        "details": "See {IERC721Metadata-name}."
      },
      "owner()": {
        "details": "Returns the address of the current owner."
      },
      "ownerOf(uint256)": {
        "details": "See {IERC721-ownerOf}."
      },
      "renounceOwnership()": {
        "details": "Leaves the contract without owner. It will not be possible to call `onlyOwner` functions anymore. Can only be called by the current owner. NOTE: Renouncing ownership will leave the contract without an owner, thereby removing any functionality that is only available to the owner."
      },
      "safeTransferFrom(address,address,uint256)": {
        "details": "See {IERC721-safeTransferFrom}."
      },
      "safeTransferFrom(address,address,uint256,bytes)": {
        "details": "See {IERC721-safeTransferFrom}."
      },
      "setApprovalForAll(address,bool)": {
        "details": "See {IERC721-setApprovalForAll}."
      },
      "supportsInterface(bytes4)": {
        "details": "See {IERC165-supportsInterface}."
      },
      "symbol()": {
        "details": "See {IERC721Metadata-symbol}."
      },
      "tokenURI(uint256)": {
        "details": "See {IERC721Metadata-tokenURI}."
      },
      "transferFrom(address,address,uint256)": {
        "details": "See {IERC721-transferFrom}."
      },
      "transferOwnership(address)": {
        "details": "Transfers ownership of the contract to a new account (`newOwner`). Can only be called by the current owner."
      }
    },
    "version": 1
  },
  "userdoc": {
    "kind": "user",
    "methods": {
      "getByOwner(address)": {
        "notice": "External function for getting all tokens by a specific owner."
      },
      "mint(uint256)": {
        "notice": "Public functions for minting and enforcing requirements."
      }
    },
    "version": 1
  }
}